S02A00004E4F444F5F5452414E534D49534F525F595F5553525F41545A422D41524455494E4F2E7372656379
S1130000F9C0000018C1000016C1000014C10000AE
S113001012C1000010C100000EC100000CC100009C
S11300200AC1000008C1000006C1000004C10000AC
S113003002C1000000C10000FEC00000FCC00000BE
S1130040FAC000000C94E0150C940D160C943A16AA
S11300500C94B315F0C00000EEC00000ECC000002A
S1130060EAC00000E8C00000E6C00000E4C00000F0
S1130070E2C00000E0C00000DEC00000DCC0000000
S11300800C9494160C94C1160C94EE160C946716EA
S113009088C30000D0C00000CEC00000CCC0000067
S11300A0CAC00000C8C000000C9448170C9475170F
S11300B00C94A2170C941B17BEC000000C94FC17E0
S11300C00C9429180C9456180C94CF17B4C0000043
S11300D0B2C00000B0C00000AEC00000ACC0000060
S11300E0AAC000000C94C20F0C94CC0F0C94B80F4F
S11300F00C94370F0C94620F0C94D60F0C940C0FC5
S11301000C948D0F98C0000096C0000094C00000AD
S113011092C0000090C000000C94EA0F0C94E00F11
S11301200C94F40F0C94FE0F0C9408100C94121001
S11301300C941C108F0CB60CAA0CC30CAA0C820CC9
S11301409C0CAA0CAA0CAA0CAA0CAA0C560CAA0C5D
S1130150AA0CAA0CAA0CAA0CAA0CE20CAA0CAA0CB3
S11301601B0D07634236B79BD8A71A39685618AED9
S1130170BAAB558C1D3CB7CC5763BD6DEDFD753ED8
S1130180F6177231BF000000803F08000000BE92E5
S11301902449123EABAAAA2ABECDCCCC4C3E0000C8
S11301A00080BEABAAAAAA3E00000000BF00000067
S11301B0803F0000000000084178D3BB4387D1137F
S11301C03D190E3CC3BD4282AD2B3E68EC8276BE27
S11301D0D98FE1A93E4C80EFFFBE01C4FF7F3F00F1
S11301E00000000004030302020100FFFEFDFCFB0B
S11301F0F9F7F4EF11241FBECFEFD1E8DEBFCDBF76
S113020000E00CBF12E0A0E0B2E0E6E5F7E400E0B5
S11302100BBF02C007900D92A439B107D9F726E0AD
S1130220A4E9B2E001C01D92AF3AB207E1F70E941F
S1130230B1190C94A923E4CE0E945B152091980275
S11302402223D9F04091A40630E020919802642F33
S1130250732F0E946C1DFB018FEF9FEF642F732F90
S11302600E946C1D30E0629FC001639F900D729FDD
S1130270900D11248E0F9F1F08956091A40670E0C5
S11302800E946C1DCB0108950E9460150E94841584
S11302901092940210929502109296021092970274
S11302A010929A02109299020C9491150E946E1564
S11302B0109298020895E8DFF9DF0C9475150F93F6
S11302C01F93CF93DF93EC010E945B158C01BE0159
S11302D080E090E02091A40630E040E050E00E94ED
S11302E05D1DDC01CB01A80160E070E0480F591FDF
S11302F06A1F7B1F40939402509395026093960269
S113030070939702409194025091950260919602E5
S113031070919702AB01662777274093940250931C
S113032095026093960270939702409194025091C3
S113033095026091960270919702411551056105ED
S1130340710591F04091940250919502609196024A
S1130350709197020196080F191F10939A02009347
S113036099020E94601508C0080F191F10939A0281
S1130370009399020E9467158091990290919A02C4
S11303808436910530F48C599F4F90939A02809350
S113039099028091990290919A020E947915DF91B5
S11303A0CF911F910F910895109298020E94931576
S11303B08093A40608958091940290919502A0914F
S11303C09602B09197020097A105B105C9F08091FA
S11303D0940290919502A0919602B0919702019790
S11303E0A109B1098093940290939502A093960277
S11303F0B09397020097A105B10511F40E94671507
S1130400809198028F5F809398029091A406891737
S113041048F010929802E0919B02F0919C02309770
S113042009F0199508950E946015E0919D02F091DC
S11304309E02309709F01995089590939C02809339
S11304409B02089590939E0280939D020895EF92DB
S1130450FF920F931F93CF93DF937C018B01EA01EB
S1130460209739F0F80161918F01C7014FD021978E
S1130470C9F780E0DF91CF911F910F91FF90EF902A
S11304800895EF92FF920F931F93CF93DF937C0114
S11304908B01EA01209739F0C7013FD0F80181931D
S11304A08F012197C9F780E0DF91CF911F910F91C0
S11304B0FF90EF900895CF93DF931F92CDB7DEB7EF
S11304C08091C6059091C705E091C205F091C305DE
S11304D0BE016F5F7F4F19958981082E000C990B1F
S11304E00F90DF91CF910895682F8091C605909168
S11304F0C705E091C405F091C505199599231CF031
S113050081E090E008958FEF9FEF0895FC019081C2
S113051095FFFDCF668380E00895FC0190819923C7
S1130520ECF7868108954F925F926F927F928F923B
S11305309F92AF92BF92CF92DF92EF92FF920F936E
S11305401F93CF93DF93EC016A017B0128013901EA
S1130550689412F876946794579447941694D1F754
S1130560888181FD0EC048015901072E73E1B694BC
S1130570A794979487947A95D1F7702DD301C201EB
S113058015C0D901C801689413F8B695A795979535
S113059087951694D1F748015901072E74E1B69452
S11305A0A794979487947A95D1F7702D8C159D050F
S11305B0AE05BF0578F1C814D904EA04FB0460F160
S11305C0888181FF10C0A7019601220F331F441FA9
S11305D0551FC301B2010E94931DDA01C90101979D
S11305E0A109B10913C0C901B801689413F896951B
S11305F08795779567951694D1F7A70196010E9480
S1130600931DDA01C9010197A109B1099D838C8366
S113061081E003C080E001C080E0DF91CF911F91B1
S11306200F91FF90EF90DF90CF90BF90AF909F908D
S11306308F907F906F905F904F9008950F931F93CA
S1130640CF93DF93EC018B01803C910521F462E0B0
S113065080E0EED506C0883C910519F461E081E0A4
S1130660E7D58A818F738A83F80126813581848155
S11306709A81482F4370440F997F942B9A839981D0
S11306808470880F880F9B7F892B89838A818F7C54
S1130690832B8A839A81977F822F880F880F880FF4
S11306A0892B8A83408151816281738100E012E148
S11306B02AE730E0CE0137DF9981986099839981E8
S11306C090619983DF91CF911F910F910895CF93FA
S11306D0DF93EB0122DF8883DF91CF91089516CF5A
S11306E008950F931F93CF93DF93CDB7DEB727976A
S11306F00FB6F894DEBF0FBECDBF08EC10E0109328
S1130700C7050093C6058FE693E09093C5058093D3
S1130710C40587E693E09093C3058093C205EAE09D
S1130720F2E084818D8385818E8386818F838081AD
S11307309181A281B38189839A83AB83BC83BE01F7
S11307406F5F7F4F88EC90E079DF6BE572E084E7C0
S113075092E00E94201FF80181818068818327969E
S11307600FB6F894DEBF0FBECDBFDF91CF911F91BE
S11307700F910895FF920F931F93CF93DF938C01F2
S1130780F62EC62FD0E0AE01B80188EC90E05FDE13
S11307908111F9CF8F2DDF91CF911F910F91FF9090
S11307A008951F920F920FB60F9211240BB60F9259
S11307B02F933F934F935F936F937F938F939F9365
S11307C0AF93BF93EF93FF93CF93DF931F92CDB774
S11307D0DEB741E050E0BE016F5F7F4F88EC90E0F0
S11307E050DEF89480919F02E82FF0E0E056FD4F30
S11307F0998190838B3919F410929F0203C08F5F03
S113080080939F0278940F90DF91CF91FF91EF91A5
S1130810BF91AF919F918F917F916F915F914F9114
S11308203F912F910F900BBE0F900FBE0F901F9012
S1130830189504C061507109810991096115710508
S113084081059105B9F70895CF93DF93C8ECD5E0FE
S113085021E7DE011D922A95E9F7DC011796ED9157
S1130860FC91189781E7DE0101900D928A95E1F7DA
S113087088859985029709F08FC08A859B854C8568
S1130880893659F49E3649F4493639F421E030E08A
S113089030933D0320933C0308C020913C033091E6
S11308A03D032130310509F077C0E091C805F0E03F
S11308B0EA53FA4F2081213649F482ED95E00E94F3
S11308C0F21E90934F0380934E0366C0223649F480
S11308D082ED95E00E94F21E90931402809313021D
S11308E05BC0233649F482ED95E00E94F21E90939A
S11308F04B0380934A0350C0243699F482ED95E06B
S11309000E94F21E28EE33E0FC01E29FC001E39F47
S1130910900DF29F900D1124909312028093110276
S11309203BC0253649F482ED95E00E94F21E909377
S113093045038093440330C0263649F482ED95E0A4
S11309400E94F21E909343038093420325C02E36E7
S113095019F5863609F59936F9F44E36E9F45E9AB6
S1130960A298729810923D0310923C0381E090E0AB
S1130970909341038093400380914E0390914F03E1
S113098090934D0380934C0380914A0390914B03C1
S11309909093490380934803DF91CF91089508957C
S11309A09B01215031091216130684F4FC01E60F51
S11309B0F71FDC0180E090E04C9152915D934083FD
S11309C001962150310982179307B4F30895CF9209
S11309D0DF92EF92FF920F931F93CF93DF936B01FC
S11309E08A01009799F0EB01E0E0F0E00F2EFAE0C5
S11309F0EF2EF12CF02D3196B7010E94801D805D01
S1130A008993862F972F0097B1F702C0E0E0F0E0BA
S1130A10E017F1075CF4EC0DFD1D9601200F311F6A
S1130A2080E38193E217F307E1F701C08F01B80176
S1130A30C601B6DFE601C00FD11F1882C801DF91DD
S1130A40CF911F910F91FF90EF90DF90CF90089579
S1130A502F923F924F925F926F927F928F929F92CA
S1130A60AF92BF92CF92DF92EF92FF920F931F93B8
S1130A70CF93DF934B015C018A01E9010E94981A2C
S1130A806B017C0140E050E0B801C601A0DF1C010D
S1130A90209791F1F801E80FF91F8EE28083BE01DF
S1130AA00D2E000C880B990B0E94CB1A9B01AC01F4
S1130AB060E070E080E291E40E94F81B2B013C01AD
S1130AC0B601DD0C880B990B0E94CB1A9B01AC017B
S1130AD0C501B4010E94CB192FEF221A320A020D6C
S1130AE0131DA30192010E94951B0E94981ADC0118
S1130AF0CB01AE01B8016BDFDF91CF911F910F9154
S1130B00FF90EF90DF90CF90BF90AF909F908F9029
S1130B107F906F905F904F903F902F9008950E9428
S1130B20C614BC0180E090E00E94C91A2FE632E1AD
S1130B3043E85AE30C94951B0895AF92BF92CF9269
S1130B40DF92EF92FF920F931F93CF93DF93CDB772
S1130B50DEB7A6970FB6F894DEBF0FBECDBF809167
S1130B604403809339068091400390914103019797
S1130B7009F0ECC110927A0210927902D0DF24E0DD
S1130B8030E0AE014F5F5F4F63DF05E112E0898122
S1130B90F80187838A8180878B8181878C81828712
S1130BA080E390E39DA38CA380E38EA3809145030F
S1130BB08F93809144038F9387E892E09F938F9360
S1130BC0CE0184969F938F930E946A1F8CA1F80193
S1130BD083878DA184878EA185870F900F900F90B6
S1130BE00F900F900F9080914C0390914D03181625
S1130BF019060CF0D5C080914203909143038130D3
S1130C009105C1F580E489B984E082BB87E190E075
S1130C1090933F0380933E0383E480838091510348
S1130C208F93809150038F938CE892E09F938F93DE
S1130C30CE0145969F938F930E946A1F8D89F80178
S1130C4081838E8982833F893383288D2483998D80
S1130C5095838A8D868338A329A39AA38BA364E002
S1130C60CE01809687DD0F900F900F900F900F901C
S1130C700F903CC00297D1F580E489B984E082BB2F
S1130C8084E690E090933F0380933E0305E112E0F5
S1130C908CE4F8018083809151038F9380915003F9
S1130CA08F938CE892E09F938F93CE0145969F9308
S1130CB08F930E946A1F8D89F80181838E898283B4
S1130CC03F893383288D2483998D95838A8D8683E8
S1130CD038A329A39AA38BA364E0CE0180964ADDAE
S1130CE00F900F900F900F900F900F9060913E0314
S1130CF085E192E0E4D1809113029091140200976F
S1130D00B9F1E92FEE0FEE0BA12C0F2EF2E1BF2E5D
S1130D10F02D0F2EFAE7CF2EF02DD12CE12CF12C53
S1130D2000E010E0282F392F4E2F5E2F6E2F7E2FDC
S1130D308E2F9E2F0E94D61D0F2EF6E0AF2EF02D83
S1130D40B12CC12C0E94291E29513C4F4F4F5F4F9B
S1130D506F4F7F4F8F4F9F4F0E94061B20E030E064
S1130D604AE754E40E94301A0E949D1A62DD05C0CD
S1130D7062E070E080E090E05CDD8091500390914F
S1130D8051030196909351038093500380914C0337
S1130D9090914D03019790934D0380934C03D6C0DB
S1130DA08BE0EBE7F2E0DE01559601900D928A9517
S1130DB0E1F710924D0310924C03809148039091F7
S1130DC0490302970CF469C081E090E090934103D9
S1130DD08093400380914E0390914F0390934D0371
S1130DE080934C038091460390914703019690931E
S1130DF0470380934603805D8C8F68E0CE0145965F
S1130E005ED180911102909112020097B9F1E92FFD
S1130E10EE0FEE0BA12C0F2EF2E1BF2EF02D0F2EB4
S1130E20FAE7CF2EF02DD12CE12CF12C00E010E0CC
S1130E30282F392F4E2F5E2F6E2F7E2F8E2F9E2F11
S1130E400E94D61D0F2EF6E0AF2EF02DB12CC12C32
S1130E500E94291E29513C4F4F4F5F4F6F4F7F4FC8
S1130E608F4F9F4F0E94061B20E030E04AE754E476
S1130E700E94301A0E949D1ADCDC05C062E070E01A
S1130E8080E090E0D6DC809148039091490301977B
S1130E90909349038093480359C0809146039091ED
S1130EA0470301969093470380934603805D8C8F9C
S1130EB06BE0CE01459603D110924103109240039A
S1130EC0409113025091140241155105B1F1952F2F
S1130ED0990F990BA12C0F2EF2E1BF2EF02D0F2E9E
S1130EE0FAE7CF2EF02DD12CE12CF12C00E010E00C
S1130EF0242F352F492F592F692F792F892F0E949D
S1130F00D61D0F2EF6E0AF2EF02DB12CC12C0E9471
S1130F10291E29513C4F4F4F5F4F6F4F7F4F8F4FCB
S1130F209F4F0E94061B20E030E04AE754E40E94F1
S1130F30301A0E949D1A7DDC05C062E070E080E0FA
S1130F4090E077DC1092470310924603A6960FB602
S1130F50F894DEBF0FBECDBFDF91CF911F910F91EB
S1130F60FF90EF90DF90CF90BF90AF90089581E411
S1130F7096E0BED2811131C108954F925F926F9273
S1130F807F928F92AF92CF92EF920F931F93CF9352
S1130F90DF93CDB7DEB7A9E8B0E0AE19B109FD0122
S1130FA0EC5AFC4F3F01EE2079F0D80144244A94D6
S1130FB04E0C512C9FEF491A590A040D151D9D9191
S1130FC09193A017B107D9F7423061F43BE03E0D8D
S1130FD0D30140918B0650918C065E934E9340E072
S1130FE050E826C0D301189731E13E0DEFE7F6E053
S1130FF090819C93918111969C9311979281129662
S11310009C931297938113969C93139794811496AF
S11310109C931497958115969C9315979681169693
S11310209C931697978117969C93179740E050ECE2
S1131030823059F4FB0180819181FD019293829366
S11310403F01CA01806498600FC03D01F8E06F1A47
S113105071083A5F88E0FB01D30101900D928A95F3
S1131060E1F7CA0180649C604EEF5AECF3013297B9
S11310705183408331972083C11002C0816001C035
S11310808162F301359791838083D30116973C9352
S1131090B0935C03A0935B03482D6A2D84E593E031
S11310A00E94CC13DF91CF911F910F91EF90CF90BD
S11310B0AF908F907F906F905F904F9008958F9234
S11310C0AF92CF92EF920F931F93CF93DF931F9220
S11310D01F92CDB7DEB72FEF3FEF3A8329832091DC
S11310E0520330915303A9014F5F5F4F5093530351
S11310F040935203812C6894AA24A1F8C12CE62EB3
S11311008C0142E0BE016F5F7F4F82E036DF0F90BB
S11311100F90DF91CF911F910F91EF90CF90AF90EF
S11311208F90089586E00C94F8120895CF93DF937E
S1131130CDB7DEB727970FB6F894DEBF0FBECDBF8D
S11311405CD04CD0E2D1B6D58111FFCF789481E048
S113115090E09A8389838EEF9AEC9C838B838BE057
S11311608D831E82BE016F5F7F4F83E50E94251130
S1131170BE016D5F7F4F80E50E942511BE016B5F4C
S11311807F4F80E00E942511BE016A5F7F4F84E09B
S11311900E94251180913906803E3CF080323CF457
S11311A0882334F48F71806203C080E201C08FE130
S11311B08F83BE01695F7F4F82E00E94251162E048
S11311C080E00E940814AEDF27960FB6F894DEBFC5
S11311D00FBECDBFDF91CF910895FFCF8DB18E7F2C
S11311E09EB15E9A569AA29A9A9A95609EB9846024
S11311F08DB90895BCDE75CA0895CF93DF931F920D
S1131200CDB7DEB78FEF80936400809365008FB70E
S11312108983F89489815F9350E85093610050E08A
S1131220509361005F918FBF0F90DF91CF9108952C
S1131230CF93DF931F92CDB7DEB79FB79983F8940E
S11312409981823040F4E82FF0E0EC59FF4F60952B
S11312508081682360839FBF0F90DF91CF910895B1
S1131260CF93DF931F92CDB7DEB79FB79983F894DE
S11312709981823038F4E82FF0E0EC59FF4F8081F7
S1131280682B60839FBF0F90DF91CF910895809169
S1131290E303882319F081E08093760608951F9371
S11312A0CF93DF931F92CDB7DEB780914206909122
S11312B04306019690934306809342068FB7898331
S11312C0F89419818091E2038F3FF1F190E0FC01E1
S11312D0EE0FFF1F9C01220F331F220F331F220F1B
S11312E0331FE20FF31FEC5BF94F218521112CC052
S11312F0FC01EE0FFF1F880F991F880F991F880F9D
S1131300991FE80FF91FEC5BF94F80819181A2814D
S1131310B38120914206309143062A173B07A1F47A
S11313200E945F018091E20390E0FC01EE0FFF1F39
S1131330880F991F880F991F880F991FE80FF91FAD
S1131340EC5BF94F81E081871FBF0F90DF91CF9154
S11313501F9108950F931F93CF93DF93C82F8F3F4F
S113136009F462C000914206109143060E941C01D8
S113137040914206509143060417150799F7D0E0AF
S113138060E070E0FE01EE0FFF1F9E01220F331F8D
S1131390220F331F220F331FE20FF31FEC5BF94FB1
S11313A0BA0155274427A0E0B0E0482B592B6A2BFB
S11313B07B2B80819181A281B381841B950BA60B29
S11313C0B70B8F3F2FEF9207A2072FE7B20740F525
S11313D09E01220F331F220F331F220F331FFE01E2
S11313E0EE0FFF1FE20FF31FEC5BF94F2185211174
S11313F01DC0009721E0A207B105C0F40E945F015F
S1131400CE01880F991FCC0FDD1FCC0FDD1FCC0F31
S1131410DD1FC80FD91FCC5BD94F81E0898706C077
S113142081E08093760602C00E944401DF91CF914F
S11314301F910F91089580917606882309F457C06F
S1131440109276068091E303882309F450C08091BA
S1131450E1038F3F59F48091E0038F3F39F4809189
S1131460E2038093E0038093E10315C02091E2033B
S11314708091E00390E0FC01EE0FFF1F880F991F9D
S1131480880F991F880F991FE80FF91FEC5BF94F1C
S113149020872093E0038091E20390E0FC01EE0FAB
S11314A0FF1F880F991F880F991F880F991FE80F36
S11314B0F91FEC5BF94F80858093E2032091E003F0
S11314C030E0F901EE0FFF1F220F331F220F331FED
S11314D0220F331FE20FF31FEC5BF94F9FEF90874E
S11314E09091E30391509093E303911133CF0895C6
S11314F0FC019091DF03953030F490839F5F9093CB
S1131500DF0380E0089584EF08951092E3031092BE
S1131510760610924306109242068FEF8093E20300
S11315208093E1038093E003E4E4F6E026E736E009
S11315308087158214823A96E217F307C9F710924E
S1131540DF038FE499E00E941D0287E499E00E9482
S113155022020C94D40108950F931F93CF93DF9329
S11315601F921F92CDB7DEB78FB78A83F8941A8182
S113157062DF1FBF1FEF012F37C08FB78983F89435
S113158029818091E10390E0DC01AA0FBB1F880F41
S1131590991F880F991F880F991FA80FB91FAC5B5B
S11315A0B94F18969C9118971496ED91FC91159744
S11315B016964D915C91179718961C93189715964B
S11315C01C921E92149717961C921E9216971996A7
S11315D01C929093E1039F3F11F40093E0032FBF0B
S11315E0309711F0CA0119958091E1038F3F29F6D4
S11315F00F900F90DF91CF911F910F91089580E08C
S11316000895AACF0895CF93DF9384EE93E0B0D0EA
S1131610C9EED3E085EF93E099838883BE0184EE1D
S113162093E0ADD080E894E09D838C836DEE73E00D
S113163084EE93E0A4D08BE095E09987888761EFEE
S113164073E084EE93E09BD0DF91CF91089560E046
S113165070E084EE93E0B8C00895009721F0BC01D7
S113166084EE93E08CC008958F929F92AF92BF92C4
S1131670CF92DF92EF92FF920F931F93CF93DF935A
S11316801F92CDB7DEB72FB72983F8948980DC0188
S113169014962C91222309F456C07A01962E5C01EB
S11316A0FC0100811181452BE1F00115110509F4BC
S11316B04DC0680101C08901D70112966D917C91DA
S11316C01397ED91FC91D8018D919C9119958111FD
S11316D009C0F8012281338168012115310559F7C8
S11316E035C068010115110599F1911031C0D5017A
S11316F08D919C9111970817190731F4F801828193
S113170093818D939C9308C0D80112968D919C91DE
S11317101397F60193838283D50112968D919C9140
S113172013970817190721F41396DC92CE92129797
S1131730F50184818150848380819181892B41F4D6
S11317401382128205C000E010E002C000E010E045
S11317508FBEC8010F90DF91CF911F910F91FF9021
S1131760EF90DF90CF90BF90AF909F908F900895AF
S1131770FC01118210821382128214820895CF9385
S1131780DF931F92CDB7DEB7FC018FB78983F8943E
S113179099818481811103C07183608306C0A28111
S11317A0B38113967C936E93129773836283DB01E8
S11317B013961C921E92129784818F5F84839FBF1D
S11317C00F90DF91CF910895AB0160E04DCF089564
S11317D004C0615071098109910961157105810580
S11317E09105B9F708950F931F93CF938091410109
S11317F08F718830A1F481E080934F0189E0809358
S11318004201C3E00FE411E0F801808180FD07C0CC
S113181063E970E080E090E0DBDFC150A9F7CF918D
S11318201F910F9108951F93CF93DF931F92CDB70C
S1131830DEB7182F80919E068F3051F51F3009F4C2
S113184038C11092A20688E490E1E1D28FB789836F
S1131850F89499817894E9E3F1E080818D7F808325
S11318608091A2068823E1F39FBF8FEF80934F01FD
S113187088E480934E01EDE4F1E08081846080830C
S1131880183011F0133021F488E080939E0611C1C2
S1131890812F90E0FC013397E731F10508F05AC03D
S11318A08827E656FF4F8F4F0C94B51D83E0809335
S11318B04201EDE4F1E080818B7F80830E94E41E8D
S11318C080936D01EEE6F1E080819770887F892B2B
S11318D080838FEF80934F0180E880934E0162E014
S11318E070E080E090E074DFE9E3F1E08081826001
S11318F080836FE270E080E090E06ADF8FE08093A5
S11319009E06D7C080919E06883021F188E080939E
S1131910420162E070E080E090E05ADF1BC08091F9
S11319209E068830B9F083E08093420162E070E063
S113193080E090E04DDF0EC080919E06883049F033
S113194018F4863039F409C0863139F0893111F43C
S113195004C049DFE1E4F1E0A6C089E080934201DC
S113196062E070E080E090E033DFF4CF80919E0687
S1131970883019F0893071F302C035DFEBCF84E091
S113198080934201E7CF80919E06893041F018F49C
S1131990883071F0DFCF863111F08931D9F686E0D5
S11319A08093420162E070E080E090E011DFD2CFEA
S11319B01ADF86E08093420162E070E080E090E00C
S11319C007DFC8CF80919E06883091F018F48630E6
S11319D0C9F0C0CF893019F0893109F0BBCF86E155
S11319E08093420162E070E080E090E0F1DEB2CFEB
S11319F0FADE86E18093420162E070E080E090E0EC
S1131A00E7DEA8CF89E08093420162E070E080E0E5
S1131A1090E0DEDE809141018F7180939E068930D3
S1131A2009F047C086E18093420162E070E080E003
S1131A3090E0CEDE8FCF80919E06883051F118F46D
S1131A40863079F087CF893019F0863151F082CF12
S1131A5089E18093420162E070E080E090E0B8DECA
S1131A6079CF89E08093420162E070E080E090E009
S1131A70AFDE809141018F7180939E068930C9F455
S1131A8089E18093420162E070E080E090E0A0DEB2
S1131A9061CFA9DE89E18093420162E070E080E0D9
S1131AA090E096DE57CF80818F7180939E068F31B0
S1131AB0D1F30F90DF91CF911F910895CF93DF93CE
S1131AC080917706882319F18091A30681111FC0A4
S1131AD08091960590919705892B41F48BE8B7DDA9
S1131AE09093970580939605892B89F01092770639
S1131AF0CCE4D1E088818F77888363E070E080E074
S1131B0090E066DE88818068888386E18CDE80913F
S1131B107C06882341F060E070E088E796E054DEBC
S1131B20009709F025D58091A306823009F487D562
S1131B30DF91CF91089504C0615071098109910921
S1131B406115710581059105B9F70895FF920F9309
S1131B501F93CF93DF9386E066DE8630E1F7E5E5F9
S1131B60F1E080818F77808310924E016894FF2486
S1131B70F3F8C0E0D0E006E411E0F8019081CC0F66
S1131B80DD1FCC0FDD1F9076292F30E03695279589
S1131B90329522952F7023273F702327C22BD32BF6
S1131BA062E070E080E090E0C6DFFA94F110E5CFE7
S1131BB083E039DE8FEF80934F0188E480934E01F8
S1131BC0CE010E94E71EDF91CF911F910F91FF90EC
S1131BD00895FF920F931F93CF93DF93F82EC9E3D9
S1131BE0D1E088818D7F888361E471E080E090E0BA
S1131BF0A2DF88818E7F888362E070E080E090E0DD
S1131C009ADF88818160888366E870E080E090E0F4
S1131C1092DF809141018F71CAE001E411E00AC0B2
S1131C2066E870E080E090E086DFF80180818F71E3
S1131C30C150C9F18830A1F780939E0687DF0E94C6
S1131C40E41E80936D01EEE6F1E080819770887F59
S1131C50892B8083808180628083ECE4F1E0808141
S1131C608068808388E480934E018FEF80935601CF
S1131C70EDE4F1E080818C7F82608083AAE4B1E0AE
S1131C808C91807F83608C93808188608083808145
S1131C9084608083F11030D27DD21092A30610921A
S1131CA0770680E001C085E8DF91CF911F910F9105
S1131CB0FF900895CF92DF92EF92FF920F931F93BC
S1131CC0CF93DF9314BE80E1809335018093340178
S1131CD0809333018093320192DC81116DC060E402
S1131CE081E0A6DAC9E3D1E08881816088838881B4
S1131CF08D7F88836BEF71E080E090E01CDF88814A
S1131D008E7F888362E070E080E090E014DF888159
S1131D108160888366E870E080E090E00CDF809169
S1131D2041018F71CAE001E411E00BC066E870E084
S1131D3080E090E000DFF80180818F71C15009F4E8
S1131D4051C0883099F780939E0680915C01843954
S1131D5009F048C035C00E94E41EF80181938F0148
S1131D60EC15FD05C1F7F7012081318142815381D2
S1131D706481758186819781AFEF0E94851EADEFE6
S1131D800E94911E21F018F00FE716E0E4CF86E2DE
S1131D9090E138D087E390E130D088E490E137D007
S1131DA032DC8BE854DC909397058093960588E7A2
S1131DB096E0DEDCDAD517C0C5E815C0C5E813C067
S1131DC081E007DFC82F8111F9CF0F2EFFE7EF2E37
S1131DD0F6E0FF2EF02D0F2EF7E8CF2EF6E0DF2EE3
S1131DE0F02DC1CFC5E88C2FDF91CF911F910F91BA
S1131DF0FF90EF90DF90CF90089590939F0580938C
S1131E009E05089590939D0580939C050895909355
S1131E1099058093980508951F920F920FB60F921B
S1131E2011240BB60F922F933F934F935F936F93AD
S1131E307F938F939F93AF93BF93EF93FF93E0911F
S1131E409E05F0919F051995FF91EF91BF91AF9178
S1131E509F918F917F916F915F914F913F912F91BE
S1131E600F900BBE0F900FBE0F901F9018951F92EE
S1131E700F920FB60F9211240BB60F922F933F932C
S1131E804F935F936F937F938F939F93AF93BF937E
S1131E90EF93FF93E0919C05F0919D051995FF91B7
S1131EA0EF91BF91AF919F918F917F916F915F91CE
S1131EB04F913F912F910F900BBE0F900FBE0F903B
S1131EC01F9018951F920F920FB60F9211240BB604
S1131ED00F922F933F934F935F936F937F938F93BF
S1131EE09F93AF93BF93EF93FF93E0919A05F09183
S1131EF09B051995FF91EF91BF91AF919F918F91A0
S1131F007F916F915F914F913F912F910F900BBEF5
S1131F100F900FBE0F901F9018951F920F920FB63F
S1131F200F9211240BB60F922F933F934F935F930D
S1131F306F937F938F939F93AF93BF93EF93FF938D
S1131F40E0919805F09199051995FF91EF91BF9152
S1131F50AF919F918F917F916F915F914F913F913D
S1131F602F910F900BBE0F900FBE0F901F901895DE
S1131F701F920F920FB60F9211240F900FBE0F9065
S1131F801F9018951F920F920FB60F9211240F9065
S1131F900FBE0F901F9018951F920F920FB60F92BD
S1131FA011240F900FBE0F901F9018951F920F923F
S1131FB00FB60F9211240F900FBE0F901F9018951B
S1131FC01F920F920FB60F9211240F900FBE0F9015
S1131FD01F9018951F920F920FB60F9211240F9015
S1131FE00FBE0F901F9018951F920F920FB60F926D
S1131FF011240F900FBE0F901F9018951F920F92EF
S11320000FB60F9211240F900FBE0F901F901895CA
S11320101F920F920FB60F9211240F900FBE0F90C4
S11320201F9018951F920F920FB60F9211240F90C4
S11320300FBE0F901F9018951F920F920FB60F921C
S113204011240F900FBE0F901F9018951F93CF93DC
S1132050DF931F92CDB7DEB78FB78983F8941981C8
S113206019D21FBF0F90DF91CF911F9108951F9335
S1132070CF93DF931F92CDB7DEB78FB78983F894E0
S11320801981A9D31FBF0F90DF91CF911F9108959C
S113209081E08093A206089585FD03C0982F9F7365
S11320A004C0982F91959F719195E4EEF1E02491ED
S11320B0291754F48491803EB4F08032B4F4882318
S11320C0CCF48F71806216C0E3EFF1E02491921793
S11320D08CF48491803E5CF080325CF4882354F468
S11320E08F71806207C080E205C08FE103C080E287
S11320F001C08FE180680895CF93DF93CFE7D6E0E6
S113210084E08C8B83E08D8B2FEF3FEF3F872E870E
S11321103D872C879BE09B8B188E40E058EF6FEF38
S113212077E0488759876A877B872AE031E0398BD3
S1132130288B9AE0998F92E09A8F95E09B8F8C8FF1
S113214084E8AADF8F8B81E08A8B1E8ADF91CF918E
S1132150089585FD02C08F7303C081958F718195A9
S1132160E4EEF1E0949189173CF4E5EEF1E021E02E
S1132170949189173CF001C020E098174CF48FEF3C
S1132180820F08952F5F3196203191F780E00895F2
S1132190822F0895CF93DF93EFE7F6E0868580934F
S11321A06201878580936301E4E6F1E0AFE7B6E07E
S11321B08D918193EC3631E0F307D1F7EFE7F6E048
S11321C084858093600185858093610148E451E0B2
S11321D0DA018C912289B0E22B9F900111242076A0
S11321E08F79822BDA018C93CFE6D1E088819589AF
S11321F09F70807F892B88832EE631E0D9018C91F2
S11322009689990F990F990F9870877F892B8C93D2
S11322102881938DB0E19B9FC0011124922F9F7060
S1132220892B8883DA018C9193899F71807E892B15
S11322308C9387898EDFE5E4F1E09081907F8F7045
S1132240892B8083DF91CF910895CF93DF938E34D0
S113225041F0893561F4FB01808180939B0680E025
S11322600BC1FB0180818093930680E005C19091AE
S11322709E069F3009F4DCC08B3009F4C9C080F499
S1132280EB01823009F484C020F4882309F446C0A9
S1132290D1C0833009F48CC0843009F45AC0CAC058
S11322A0833579F128F48F3451F08035E9F0C2C0D8
S11322B0873509F456C0803F09F48BC0BBC0FB01CD
S11322C08081EFE7F6E0858B938D981710F4909357
S11322D09406EFE6F1E08081909194069F70807FF0
S11322E0892B808380E0C8C0FB0190818181EFE766
S11322F0F6E096878787909362018093630180E07C
S1132300BBC0FB0190818181EFE7F6E0948785876C
S1132310909360018093610180E0AEC08091A30638
S113232081118AC0888140E058EF6FEF77E0082E72
S113233004C076956795579547950A94D2F740FF60
S11323407DC0983009F480C088E06DDA8830E1F708
S113235086C08091A306811173C08881811172C0E7
S11323608BC0FB019081EFE7F6E0938F8589981786
S113237010F490939406EFE6F1E08081282F2F70FB
S113238030E1939FC0011124822B808380E074C0CC
S11323908881CFE7D6E08F8B7FDE8F8BDADEE5E4B2
S11323A0F1E09081907F8F70892B808380E064C0FE
S11323B0888180939106E8E4F1E0208130E2839FF4
S11323C0C00111248076922F9F79892B808380E02D
S11323D053C0FB01B081A1815281438134812581A5
S11323E096818781EFE7F6E0B083A183528343832C
S11323F03483258396838783E4E6F1E0AFE7B6E090
S11324008D918193EC3631E0F307D1F780E034C04D
S1132410FB01808180939506EEE6F1E09081880FC0
S1132420880F880F8870977F892B808380E024C071
S113243081E822C084EF20C086E81EC088EE1CC05C
S113244086E81AC088EE18C080939206E8E4F1E0AA
S11324509081907E8F71892B808380E00DC088816C
S113246080939206E8E4F1E09081907E8F71892B4D
S1132470808386E1D8D980E0DF91CF91089504C0AC
S113248061507109810991096115710581059105F1
S1132490B9F70895CF92DF92EF92FF920F931F93B3
S11324A0CF93DF93E0919605F0919705309771F4FF
S11324B0CCE4D1E088818F77888363E070E080E0AA
S11324C090E0DDDF88818068888349C000914701FE
S11324D010917B0111230CF442C0E080F18082E072
S11324E0810FEBE8F0E0E81BF109E701CE0FDF1FF5
S11324F0C12ED12CA6014F5F5F4F60E871E0CE0181
S11325000E940F1FFE011293D7011896FC93EE93BD
S11325101797EC0DFD1D0283609196057091970548
S113252088E796E02CD98BE892D89093970580930E
S11325309605892B21F481E0809377060DC0CCE4C5
S1132540D1E088818F77888363E070E080E090E059
S113255096DF88818068888380E480934F01DF91CF
S1132560CF911F910F91FF90EF90DF90CF9008953E
S1132570CF93DF93AC01FC01C081D181AF81B885D9
S11325808C9180939F06E82FF0E03196EA0FFB1FB1
S1132590808131813D3320F4311103C031E001C029
S11325A03CE382958695869583702FEF829FC001C8
S11325B01124389FB001399F700D11249B01A3E8A9
S11325C0BDE20E94BD1D96958795929582958F7068
S11325D089279F7089278F3F910511F008F08FEFAD
S11325E080835A834983CE01CAD6DF91CF9108955F
S11325F09091A306911116C0883029F414D9109231
S1132600770688E008958091960590919705892B27
S113261021F086E108D986E0089581E08093770669
S113262086E0089586E8089504C06150710981091F
S113263091096115710581059105B9F70895109205
S1132640A3068091A005833069F028F4882391F0D3
S1132650813031F00DC0853039F0873039F008C051
S113266087E809C081EE07C089EE05C085E803C08C
S113267085E801C080E060917D0670917E067CC68D
S113268008951F93CF93DF931F92CDB7DEB7182F12
S1132690662381F0ECE6F1E0208190919B0630E125
S11326A0939FC0011124922F9F70892B8083123035
S11326B0E0F408C0ECE6F1E080818F708083123092
S11326C0A0F40DC0ECE6F1E0808190919306990F9F
S11326D09E70817F892B808310926F011AC0ECE673
S11326E0F1E080818E60808314C0EFE7F6E0838D93
S11326F020E1829FC00111249589892B80936F0169
S1132700ACE6B1E08C919489990F9E70817F892BFE
S11327108C9389E188D88931E1F71130A1F4809153
S11327209F06833140F061E073E080E090E07CDF5D
S113273010929F060DC06BEA70E080E090E074DFB9
S113274010929F0605C06CE070E080E090E06CDFC2
S11327508FB78983F8941981E9E3F1E0808182607D
S113276080830000000080818D7F80836091A006BB
S11327707091A106FB01408150E04150510980E86D
S113278091E00E940F1F81E08093A3061FBF0F906A
S1132790DF91CF911F910895FC019091A3069111AF
S11327A016C0F0937E06E0937D060780F085E02D49
S11327B0F093A106E093A0068081815080939F0648
S11327C0EF2B39F0862F642F5CDF80E0089586E8D4
S11327D0089588EE08958091A3068130C1F4809114
S11327E042018295869587708093A00582E080934C
S11327F0A3068091960590919705892B31F489E081
S113280012D881E080937706089586E10CC8089574
S1132810882329F1EDE4F1E080818C7F808380813D
S113282088608083AAE4B1E08C91807F83608C937C
S11328308081846080838081837009F054C080919A
S11328404D0183FF52C080914D0182FF50C08091A1
S11328504A018F70833009F04CC080E00895EDE4A4
S1132860F1E08081877F8083AAE4B1E08C91807F4E
S113287087608C93808184608083613031F48081AF
S11328808C7F8160808385E817C0623041F4EDE479
S1132890F1E080818C7F8260808385E80DC06623AF
S11328A011F0633041F4EDE4F1E080818C7F8083AA
S11328B085E860E001C088EE20914D01237030E08E
S11328C070E026173707B9F490914D0193FD15C0B8
S11328D090914D0192FD13C090914A019F709330E5
S11328E079F480E0089585E8089585E8089585E8F9
S11328F0089585E8089585E8089585E8089585E8AC
S1132900089504C061507109810991096115710527
S113291081059105B9F70895811125C0FB018081D6
S1132920803D2CF08FEC8093A1056FE013C0873AB3
S11329302CF486EA8093A10560E00CC08093A10585
S1132940082E000C990B865A9F4F63E070E00E949A
S1132950801D6F5FE5E5F1E08081807F6F70682BFB
S1132960608380E0089584EF089586EA8093A1054A
S113297061EA75E080E0D0DF61E080E00E94180940
S113298060E180E00E94180980E00895FF920F93AF
S11329901F93CF93DF93F0909E068FE0F81203C04D
S11329A088E00E94130C10924E01C1E5D1E08881A9
S11329B08F7E888388818F60888367E070E080E001
S11329C090E09FDF888185FD17C08881807F8883A0
S11329D063E070E080E090E094DF888121E090E0A3
S11329E085FB002700F910E085FF20E0C22FD92FD6
S11329F0012B09F441C012C0C1E5D1E08881806196
S1132A00888388818F60888367E070E080E090E04D
S1132A1078DF888185FD2EC0D1E001C0D0E0C0E020
S1132A2001E511E0F8018081807F9C2F9F70892B44
S1132A30808363E070E080E090E063DFF8018081F0
S1132A4085FD04C0CC2331F0C15004C0CF5FC03138
S1132A5049F7CFE0DD2339F0FBE4CF9FE0011124F7
S1132A60CA50D64F09C082E3C89FE0011124CC5557
S1132A70D94F02C0CFEFDFEFEFE4F1E0808188E0CF
S1132A80808380E4808384E0808388E480934E01A3
S1132A90EFE0FE1203C08FE00E94130CCE01DF9121
S1132AA0CF911F910F91FF9008950C94DB0108952D
S1132AB00C941302089580918400909185000895E8
S1132AC0EFE6F0E080818D7F8083B19A0895B19A1A
S1132AD0EFE6F0E08081826080830895EFE6F0E025
S1132AE0808181608083B09A089580E890E082C3F9
S1132AF00895E9E8F0E02081922B9083E8E8F0E083
S1132B009081892B80830895CF93DF931F92CDB753
S1132B10DEB78FB78983F89489810F90DF91CF91C5
S1132B2008958FBF0895CF93DF9380E890E0EBD2B0
S1132B3065E575E180E890E0D4D3CFE6D0E0888104
S1132B408160888368E575E180E890E0EAD3888154
S1132B508D7F8883E1E8F0E080818160808388E074
S1132B60DF91CF9108951F920F920FB60F92112407
S1132B700BB60F922F933F934F935F936F937F9373
S1132B808F939F93AF93BF93EF93FF93E091C0050F
S1132B90F091C105309709F01995FF91EF91BF911C
S1132BA0AF919F918F917F916F915F914F913F91E1
S1132BB02F910F900BBE0F900FBE0F901F90189582
S1132BC01F920F920FB60F9211240BB60F922F93F0
S1132BD03F934F935F936F937F938F939F93AF93A1
S1132BE0BF93EF93FF93E091BE05F091BF0530973B
S1132BF009F01995FF91EF91BF91AF919F918F913A
S1132C007F916F915F914F913F912F910F900BBEE8
S1132C100F900FBE0F901F9018951F920F920FB632
S1132C200F9211240BB60F922F933F934F935F9300
S1132C306F937F938F939F93AF93BF93EF93FF9380
S1132C40E091BC05F091BD05309709F01995FF910D
S1132C50EF91BF91AF919F918F917F916F915F9110
S1132C604F913F912F910F900BBE0F900FBE0F907D
S1132C701F9018951F920F920FB60F9211240BB646
S1132C800F922F933F934F935F936F937F938F9301
S1132C909F93AF93BF93EF93FF93E091BA05F091A5
S1132CA0BB05309709F01995FF91EF91BF91AF9152
S1132CB09F918F917F916F915F914F913F912F9150
S1132CC00F900BBE0F900FBE0F901F9018951F9280
S1132CD00F920FB60F9211240BB60F922F933F93BE
S1132CE04F935F936F937F938F939F93AF93BF9310
S1132CF0EF93FF93E091B805F091B905309709F08F
S1132D001995FF91EF91BF91AF919F918F917F9111
S1132D106F915F914F913F912F910F900BBE0F9048
S1132D200FBE0F901F9018951F920F920FB60F921F
S1132D3011240BB60F922F933F934F935F936F938E
S1132D407F938F939F93AF93BF93EF93FF93E09100
S1132D50B605F091B705309709F01995FF91EF91F9
S1132D60BF91AF919F918F917F916F915F914F919F
S1132D703F912F910F900BBE0F900FBE0F901F909D
S1132D8018951F920F920FB60F9211240BB60F9243
S1132D902F933F934F935F936F937F938F939F935F
S1132DA0AF93BF93EF93FF93E091B405F091B50512
S1132DB0309709F01995FF91EF91BF91AF919F91D1
S1132DC08F917F916F915F914F913F912F910F90D0
S1132DD00BBE0F900FBE0F901F9018951F920F926D
S1132DE00FB60F9211240BB60F922F933F934F936C
S1132DF05F936F937F938F939F93AF93BF93EF935F
S1132E00FF93E091B205F091B305309709F019955D
S1132E10FF91EF91BF91AF919F918F917F916F91AE
S1132E205F914F913F912F910F900BBE0F900FBE6A
S1132E300F901F9018951F920F920FB60F921124A6
S1132E400BB60F922F933F934F935F936F937F93A0
S1132E508F939F93AF93BF93EF93FF93E091B0054C
S1132E60F091B105309709F01995FF91EF91BF9159
S1132E70AF919F918F917F916F915F914F913F910E
S1132E802F910F900BBE0F900FBE0F901F901895AF
S1132E901F920F920FB60F9211240BB60F922F931D
S1132EA03F934F935F936F937F938F939F93AF93CE
S1132EB0BF93EF93FF93E091AE05F091AF05309788
S1132EC009F01995FF91EF91BF91AF919F918F9167
S1132ED07F916F915F914F913F912F910F900BBE16
S1132EE00F900FBE0F901F9018951F920F920FB660
S1132EF00F9211240BB60F922F933F934F935F932E
S1132F006F937F938F939F93AF93BF93EF93FF93AD
S1132F10E091AC05F091AD05309709F01995FF915A
S1132F20EF91BF91AF919F918F917F916F915F913D
S1132F304F913F912F910F900BBE0F900FBE0F90AA
S1132F401F9018951F920F920FB60F9211240BB673
S1132F500F922F933F934F935F936F937F938F932E
S1132F609F93AF93BF93EF93FF93E091AA05F091E2
S1132F70AB05309709F01995FF91EF91BF91AF918F
S1132F809F918F917F916F915F914F913F912F917D
S1132F900F900BBE0F900FBE0F901F9018951F92AD
S1132FA00F920FB60F9211240BB60F922F933F93EB
S1132FB04F935F936F937F938F939F93AF93BF933D
S1132FC0EF93FF93E091A805F091A905309709F0DC
S1132FD01995FF91EF91BF91AF919F918F917F913F
S1132FE06F915F914F913F912F910F900BBE0F9076
S1132FF00FBE0F901F9018951F920F920FB60F924D
S113300011240BB60F922F933F934F935F936F93BB
S11330107F938F939F93AF93BF93EF93FF93E0912D
S1133020A605F091A705309709F01995FF91EF9146
S1133030BF91AF919F918F917F916F915F914F91CC
S11330403F912F910F900BBE0F900FBE0F901F90CA
S113305018951F920F920FB60F9211240BB60F9270
S11330602F933F934F935F936F937F938F939F938C
S1133070AF93BF93EF93FF93E091A405F091A5055F
S1133080309709F01995FF91EF91BF91AF919F91FE
S11330908F917F916F915F914F913F912F910F90FD
S11330A00BBE0F900FBE0F901F9018951F920F929A
S11330B00FB60F9211240BB60F922F933F934F9399
S11330C05F936F937F938F939F93AF93BF93EF938C
S11330D0FF93E091A205F091A305309709F01995AB
S11330E0FF91EF91BF91AF919F918F917F916F91DC
S11330F05F914F913F912F910F900BBE0F900FBE98
S11331000F901F9018951F93CF93DF931F92CDB705
S1133110DEB72FB72983F8941981009709F464C0A6
S11331208837910549F461E080E00E94180960E164
S113313080E00E94180958C0803C910529F462E09F
S113314080E00E94180950C08C34910529F464E091
S113315080E00E94180948C08038910529F468E08D
S113316080E00E94180940C08434910529F460E28B
S113317080E00E94180938C0803B910529F460E47E
S113318080E00E94180930C0883B910529F460E86A
S113319080E00E94180928C0883C910529F461E068
S11331A081E00E94180920C08039910529F468E063
S11331B081E00E94180918C0803A910529F460E161
S11331C081E00E94180910C0803221E0920729F49E
S11331D060E281E00E94180907C08334914021F421
S11331E060E481E00E9418091FBF0F90DF91CF9126
S11331F01F9108951F93CF93DF931F92CDB7DEB72E
S11332002FB72983F8941981009709F464C088378B
S1133210910549F461E080E00E94300960E180E0BA
S11332200E94300958C0803C910529F462E080E096
S11332300E94300950C08C34910529F464E080E088
S11332400E94300948C08038910529F468E080E084
S11332500E94300940C08434910529F460E280E082
S11332600E94300938C0803B910529F460E480E075
S11332700E94300930C0883B910529F460E880E061
S11332800E94300928C0883C910529F461E081E05E
S11332900E94300920C08039910529F468E081E05A
S11332A00E94300918C0803A910529F460E181E058
S11332B00E94300910C0803221E0920729F460E2B4
S11332C081E00E94300907C08334914021F460E416
S11332D081E00E9430091FBF0F90DF91CF911F91B1
S11332E008958038910529F47093C1056093C00551
S11332F008958039910529F47093B9056093B80550
S11333000895803A910529F47093B1056093B0054E
S113331008958032914021F47093A9056093A80523
S113332008958038910529F47093BF056093BE0514
S113333008958039910529F47093B7056093B60513
S11333400895803A910529F47093AF056093AE0512
S113335008958032914021F47093A7056093A605E7
S113336008950E9496080E94FA080E94010B0E9488
S11333705E0D0E949D05F9CF0C94CF040895CF9360
S1133380DF93EC010E94240489819A810E942D0B11
S1133390DF91CF9108955058BB27AA270ED08BC137
S11333A07CD130F081D120F031F49F3F11F41EF430
S11333B071C10EF4E095E7FB67C1E92F8DD180F36D
S11333C0BA17620773078407950718F071F49EF51E
S11333D0A5C10EF4E0950B2EBA2FA02D0B01B90157
S11333E090010C01CA01A0011124FF27591B99F077
S11333F0593F50F4503E68F11A16F040A22F232F83
S1133400342F4427585FF3CF469537952795A795D2
S1133410F0405395C9F77EF41F16BA0B620B730B79
S1133420840BBAF09150A1F0FF0FBB1F661F771FEA
S1133430881FC2F70EC0BA0F621F731F841F48F49F
S1133440879577956795B795F7959E3F08F0B3CF25
S11334509395880F08F09927EE0F9795879508950F
S11334600CD029C121D140F018D130F021F45F3FB4
S113347019F00AC1511153C10DC12ED198F39923EA
S1133480C9F35523B1F3951B550BBB27AA27621724
S11334907307840738F09F5F5F4F220F331F441F69
S11334A0AA1FA9F333D00E2E3AF0E0E830D09150A1
S11334B05040E695001CCAF729D0FE2F27D0660F8E
S11334C0771F881FBB1F261737074807AB07B0E8CD
S11334D009F0BB0B802DBF01FF2793585F4F2AF0E3
S11334E09E3F510568F0D0C01AC15F3FECF3983E8F
S11334F0DCF3869577956795B795F7959F5FC9F740
S1133500880F911D9695879597F90895E1E0660FC8
S1133510771F881FBB1F621773078407BA0720F041
S1133520621B730B840BBA0BEE1F88F7E0950895AA
S113353004D06894B111F3C00895D6D088F09F5791
S113354090F0B92F9927B751A0F0D1F0660F771FEB
S1133550881F991F1AF0BA95C9F712C0B13081F0CB
S1133560DDD0B1E00895DAC0672F782F8827B85FDF
S113357039F0B93FCCF3869577956795B395D9F72C
S11335803EF490958095709561957F4F8F4F9F4F36
S11335900895E89409C097FB3EF490958095709542
S11335A061957F4F8F4F9F4F9923A9F0F92F96E98B
S11335B0BB279395F695879577956795B795F11100
S11335C0F8CFFAF4BB0F11F460FF1BC06F5F7F4F9D
S11335D08F4F9F4F16C0882311F096E911C07723AF
S11335E021F09EE8872F762F05C0662371F096E8B8
S11335F0862F70E060E02AF09A95660F771F881F87
S1133600DAF7880F9695879597F90895E894F92F36
S113361096EBFF2381F0121613061406440B9395C0
S1133620F69587957795679557954040FF23B9F7A9
S11336301BC099270895882351F49850D2F7872BFB
S1133640762F652F542F432F322F20E0B1F312161B
S113365013061406440B88233AF09A95440F551F19
S1133660661F771F881FCAF755234AF4440F551F56
S113367011F460FF04C06F5F7F4F8F4F9F4F880F1F
S11336809695879597F9089597F99F6780E870E074
S113369060E008959FEF80EC089500240A941616C4
S11336A0170618060906089500240A94121613062C
S11336B0140605060895092E0394000C11F48823BA
S11336C052F0BB0F40F4BF2B11F460FF04C06F5FD6
S11336D07F4F8F4F9F4F089557FD9058440F551FAC
S11336E059F05F3F71F04795880F97FB991F61F080
S11336F09F3F79F087950895121613061406551FF7
S1133700F2CF4695F1DF08C0161617061806991F62
S1133710F1CF86957105610508940895E894BB2757
S113372066277727CB0197F908950BD0C4CFB5DF6F
S113373028F0BADF18F0952309F0A6CFABCF1124F7
S1133740EECFCADFA0F3959FD1F3950F50E0551F3C
S1133750629FF001729FBB27F00DB11D639FAA27E2
S1133760F00DB11DAA1F649F6627B00DA11D661F31
S1133770829F2227B00DA11D621F739FB00DA11D52
S1133780621F839FA00D611D221F749F3327A00D0C
S1133790611D231F849F600D211D822F762F6A2FA8
S11337A011249F5750408AF0E1F088234AF0EE0F2D
S11337B0FF1FBB1F661F771F881F91505040A9F73A
S11337C09E3F510570F060CFAACF5F3FECF3983E67
S11337D0DCF3869577956795B795F795E7959F5FA1
S11337E0C1F7FE2B880F911D9695879597F908953B
S11337F0FA01EE0FFF1F30962105310599F161158D
S1133800710561F48038BFE39B0749F168949038EF
S1133810810561F08038BFEF9B0741F0992342F5A1
S1133820FF3FE1053105210511F1E8940894E7957E
S1133830D901AA2329F4AB2FBE2FF85FD0F310C00F
S1133840FF5F70F4A695E0F7F73950F019F0FF3AEE
S113385038F49F779F930CD00F9007FC90580895ED
S11338603EF018CF60E070E080E89FE308954FE7F2
S11338709F775F934F933F932F939ED02F913F91C8
S11338804F915F9152DF05C019F40EF0FDCE46CF83
S113389001CF2ADFC8F39638C0F707F80F92E894EF
S11338A02BE33AEA48EB5FE74EDF0F920F920F9259
S11338B04DB75EB70F92C0D0E2E6F1E016D04F915B
S11338C05F91EF91FF91E595EE1FFF1F49F0FE57C1
S11338D0E0684427EE0F441FFA95E1F74195550B34
S11338E032D00F9007FE26C00895DF93CF931F9325
S11338F00F93FF92EF92DF927B018C01689405C0D5
S1133900DA2EEF011EDFFE01E894A5912591359191
S113391045915591AEF3EF0150DDFE019701A801E9
S1133920DA9479F7DF90EF90FF900F911F91CF9188
S1133930DF9108959B01AC0160E070E080E89FE3B3
S11339408FCDA2CEACC0D0DEE8F39923D9F3940F87
S1133950511DBBF39150504094F059F0882332F03C
S1133960660F771F881F91505040C1F79E3F510545
S113397044F7880F911D9695879597F908955F3FB1
S1133980ACF0983E9CF0BB27869577956795B795E4
S113399008F4B1609395C1F7BB0F58F711F460FFB9
S11339A0E8CF6F5F7F4F8F4F9F4FE3CFB8CE0EF0BE
S11339B076C070CE689468CE97DEC8F39923D1F3AD
S11339C0C6F3DF93CF931F930F93FF92C92FDD2785
S11339D088232AF02197660F771F881FDAF720E0E3
S11339E030E040E85FEB9FE3883920F0803E30F020
S11339F021968F77D1DCEAE8F1E003C0CDDCE7EB78
S1133A00F1E073DF8B01BE01EC01FB2E6F577109EE
S1133A107595771F880B990BBEDD28E132E741E3EA
S1133A205FE38FDEAF2D9801AE01FF900F911F91E0
S1133A30CF91DF91C2DC3FCEFA01DC01AA0FBB1F9C
S1133A409B01AC01BF5728F4222733274427507821
S1133A501FC0B75188F4AB2F00244695379527959E
S1133A60011CA395D2F3002069F0220F331F441FD9
S1133A70B395DAF30DD08FCC61307105A0E88A07D5
S1133A80B94630F49B01AC016627772788279078E4
S1133A90309621F0208331834283538308959F3FDE
S1133AA031F0915020F4879577956795B795880FF5
S1133AB0911D9695879597F90895DB018F939F93B0
S1133AC06BD0BF91AF91A29F800D911DA39F900DCC
S1133AD0B29F900D11240895AA1BBB1B51E107C08E
S1133AE0AA1FBB1FA617B70710F0A61BB70B881F8A
S1133AF0991F5A95A9F780959095BC01CD01089519
S1133B0097FB072E16F4009406D077FD08D0E4DF67
S1133B1007FC05D03EF4909581959F4F08957095CC
S1133B2061957F4F0895A1E21A2EAA1BBB1BFD01CC
S1133B300DC0AA1FBB1FEE1FFF1FA217B307E40788
S1133B40F50720F0A21BB30BE40BF50B661F771FE0
S1133B50881F991F1A9469F76095709580959095C0
S1133B609B01AC01BD01CF010895EE0FFF1F881F1B
S1133B708BBF0790F691E02D1994A29FB001B39FDB
S1133B80C001A39F700D811D1124911DB29F700D62
S1133B90811D1124911D0895F0DFA59F900DB49F00
S1133BA0900DA49F800D911D11240895DF93CF9350
S1133BB01F930F939A9DF02D219FF00D8B9DF00D77
S1133BC08A9DE02DF10D039FF00D029FE00DF11D84
S1133BD04E9DE00DF11D5E9DF00D4F9DF00D7F9308
S1133BE06F93BF92AF925F934F93D501C6DF8B0162
S1133BF0AC01D701C2DFEB01E80FF91FD6011FD0DA
S1133C002F913F91D601B9DFC60FD71FE81FF91FC7
S1133C10AF91BF9114D02F913F91AFDFC60FD71F43
S1133C20E81FF91FD601A9DFE60FF71F9801BE01AF
S1133C30CF0111240F911F91CF91DF9108959DDF42
S1133C40460F571FC81FD91F08F43196089568946A
S1133C5001C0E8948F929F92CF93DF9305D0DF91B8
S1133C60CF919F908F90089588249924F401E401C2
S1133C70B0E49F93AA279A158B049C04ED05FE05D6
S1133C80CF05D007A10798F4AD2FDC2FCF2FFE2F3F
S1133C90E92D982C892E982F872F762F652F542F56
S1133CA0432F322F2227B85031F7BF9127C01B2E44
S1133CB0BF91BB27220F331F441F551F661F771F59
S1133CC0881F991F881C991CEE1FFF1FCC1FDD1F26
S1133CD0AA1FBB1F8A149B04EC05FD05CE05DF0556
S1133CE0A007B10748F08A189B08EC09FD09CE0922
S1133CF0DF09A00BB10B21601A94E1F62EF49401B4
S1133D00AF01BE01CD01000C08950024A7FD00946D
S1133D102A0F301D401D501D601D701D801D901DFB
S1133D2008950024A7FD00942A1730054005500586
S1133D30600570058005900508958F929F92AF925B
S1133D40BF92CF92DF92EF92FF92CF93DF93EC0179
S1133D50688179818A819B8161157105810591054D
S1133D6021F464E279ED8BE597E02DE133EF41E056
S1133D7050E0CDD449015A019B01AC01A7EAB1E45A
S1133D800BDF6B017C01ACEEB4EFA5019401DDD433
S1133D90DC01CB018C0D9D1DAE1DBF1DB7FF03C003
S1133DA00197A109B04888839983AA83BB839F772D
S1133DB0DF91CF91FF90EF90DF90CF90BF90AF90C5
S1133DC09F908F900895B9CF80E092E0B6CFA0E0A5
S1133DD0B0E08093000290930102A0930202B0939A
S1133DE003020895FC0188279927E8942191203241
S1133DF0E9F3293010F02E30C8F32B3239F02D328C
S1133E0031F4689403C014D0820F911D2191205382
S1133E102A30C8F31EF4909581959F4F0895FB01B5
S1133E20DC0102C001900D9241505040D8F7089532
S1133E307AE0979F902D879F802D910D11240895EE
S1133E400F931F93CF93DF93009731F4611571059E
S1133E5019F480E090E039C08B01EC016EE070E071
S1133E6081E090E062D2FC01892B99F380E883839E
S1133E700115110571F01387028781E8838380910E
S1133E80A5069091A606892B21F4F093A606E0934B
S1133E90A5062097C9F0D187C08783818260838378
S1133EA08091A7069091A806892B71F4F093A80637
S1133EB0E093A7068091A9069091AA06892B21F484
S1133EC0F093AA06E093A906CF01DF91CF911F9149
S1133ED00F9108950F931F93CF93DF93CDB7DEB760
S1133EE02E970FB6F894DEBF0FBECDBF0E891F8983
S1133EF086E08C831A8309838FEF9FE79E838D83EB
S1133F00AE01465E5F4F688D798DCE01019610D06B
S1133F10EF81F885E00FF11F10822E960FB6F8940A
S1133F20DEBF0FBECDBFDF91CF911F910F910895DA
S1133F302F923F924F925F926F927F928F929F92B5
S1133F40AF92BF92CF92DF92EF92FF920F931F93A3
S1133F50CF93DF93CDB7DEB72B970FB6F894DEBFC0
S1133F600FBECDBF6C017B018A01FC011782168252
S1133F70838181FFBFC1CE0101963C01F60193818B
S1133F80F70193FD859193FF81917F01882309F4C3
S1133F90ADC1853239F493FD859193FF81917F0101
S1133FA0853221F4B60190E018D3E8CF912C212C6E
S1133FB0312CFFE1F315D8F08B3279F038F48032EC
S1133FC079F08332A1F4232D20611DC08D3261F07C
S1133FD0803369F4232D216016C0832D8260382E2E
S1133FE0E32DE4603E2E2AC0F32DF8601DC037FC9B
S1133FF02DC020ED280F2A3040F08E32B9F436FC63
S113400075C1232D2064322E19C036FE06C08AE005
S1134010989E200D1124922E11C0EAE02E9E200DB0
S11340201124222EF32DF0623F2E08C08C3621F489
S1134030832D8068382E02C0883641F4F70193FD41
S1134040859193FF81917F018111B3CF982F9F7D3B
S11340509554933028F40C5F1F4F9FE399830DC050
S1134060833631F0833771F0833509F055C020C0B1
S1134070F801808189830E5F1F4F88248394912CDB
S1134080530112C02801F2E04F0E511CF801A08028
S1134090B18036FE03C0692D70E002C06FEF7FEF80
S11340A0C50190D24C018201F32DFF773F2E15C03C
S11340B0280122E0420E511CF801A080B18036FE96
S11340C003C0692D70E002C06FEF7FEFC50168D2B5
S11340D04C01F32DF0683F2E820133FC19C0822D70
S11340E090E088169906A0F4B60180E290E075D2BB
S11340F02A94F5CFF50137FC859137FE81915F0154
S1134100B60190E06AD221102A9421E0821A910823
S11341108114910479F7E1C0843611F0893639F5B8
S1134120F80137FE07C060817181828193810C5F41
S11341301F4F08C060817181072E000C880B990BFA
S11341400E5F1F4FF32DFF763F2E97FF09C090950A
S11341508095709561957F4F8F4F9F4FF0683F2EEC
S11341602AE030E0A30175D2882E861844C0853732
S113417031F4232D2F7EB22E2AE030E025C0932D7A
S1134180997FB92E8F36C1F018F4883579F0AEC016
S1134190803719F0883721F0A9C0E92FE061BE2EDD
S11341A0B4FE0DC0FB2DF460BF2E09C034FE0AC05E
S11341B0292F2660B22E06C028E030E005C020E199
S11341C030E002C020E132E0F801B7FE07C06081B0
S11341D07181828193810C5F1F4F06C06081718160
S11341E080E090E00E5F1F4FA30133D2882E861823
S11341F0FB2DFF773F2E36FE0DC0232D2E7FA22EE2
S1134200891458F434FE0BC032FC09C0832D8E7E11
S1134210A82E05C0B82CA32C03C0B82C01C0B92CFF
S1134220A4FE0FC0FE01E80DF11D8081803321F44E
S11342309A2D997EA92E09C0A2FE06C0B394B39408
S113424004C08A2D867809F0B394A3FC10C0A0FEA4
S113425006C0B21480F4280C922C9B180DC0B21422
S113426058F4B60180E290E0B8D1B394F8CFB21418
S113427018F42B1802C0982C212CA4FE0FC0B601F0
S113428080E390E0AAD1A2FE16C0A1FC03C088E797
S113429090E002C088E590E0B6010CC08A2D8678D3
S11342A051F0A1FE02C08BE201C080E2A7FC8DE2C6
S11342B0B60190E092D1891430F4B60180E390E025
S11342C08CD19A94F8CF8A94F301E80DF11D808182
S11342D0B60190E082D18110F6CF222009F44ECEAF
S11342E0B60180E290E079D12A94F7CFF601868175
S11342F0978102C08FEF9FEF2B960FB6F894DEBF25
S11343000FBECDBFDF91CF911F910F91FF90EF9022
S1134310DF90CF90BF90AF909F908F907F906F90E1
S11343205F904F903F902F9008950F931F93CF93DA
S1134330DF93869F8001879F100D969F100D112497
S1134340C8010DD0EC01009721F0A80160E070E0F5
S113435032D1CE01DF91CF911F910F9108950F9328
S11343601F93CF93DF938230910510F482E090E0A5
S1134370E091AD06F091AE0620E030E0A0E0B0E0C0
S1134380309719F1408151810281138148175907EF
S1134390C8F08417950769F4109731F012960C93BE
S11343A0129713961C9327C00093AD061093AE0684
S11343B022C02115310519F04217530718F49A0148
S11343C0BD01EF01DF01F801DBCF21153105F9F063
S11343D0281B390B2430310580F48A819B816115B7
S11343E0710521F0FB019383828304C09093AE0690
S11343F08093AD06FE01329644C0FE01E20FF31F26
S11344008193919322503109398328833AC02091B2
S1134410AB063091AC06232B41F420910602309177
S113442007023093AC062093AB062091040230912E
S113443005022115310541F42DB73EB7409108021C
S113444050910902241B350BE091AB06F091AC06A8
S1134450E217F307A0F42E1B3F0B2817390778F057
S1134460AC014E5F5F4F2417350748F04E0F5F1FB6
S11344705093AC064093AB068193919302C0E0E065
S1134480F0E0CF01DF91CF911F910F910895CF9369
S1134490DF93009709F481C0FC01329713821282E2
S11344A0A091AD06B091AE06109781F420813181C0
S11344B0820F931F2091AB063091AC062817390761
S11344C051F5F093AC06E093AB0667C0ED0120E034
S11344D030E0CE17DF0740F44A815B819E0141152D
S11344E05105F1F0EA01F5CFD383C28340815181B4
S11344F0840F951FC817D90759F488819981840FAF
S1134500951F0296918380838A819B819383828302
S11345102115310529F4F093AE06E093AD063DC0B4
S1134520E901FB83EA8349915991C40FD51FEC1724
S1134530FD0761F480819181840F951F0296E90142
S113454099838883828193819B838A83E0E0F0E06E
S113455012968D919C911397009719F0FD01DC013F
S1134560F7CF8D919C9111979D012E5F3F4F820F44
S1134570931F2091AB063091AC062817390769F4D4
S1134580309729F41092AE061092AD0602C0138241
S11345901282B093AC06A093AB06DF91CF9108953D
S11345A0FC010590615070400110D8F780959095FA
S11345B08E0F9F1F0895DC0101C06D934150504040
S11345C0E0F70895FC016150704001900110D8F7A4
S11345D0809590958E0F9F1F08950F931F93CF93EF
S11345E0DF93FB01238121FD03C08FEF9FEF2CC0DC
S11345F022FF16C046815781248135814217530713
S113460044F4A081B1819D012F5F3F4F318320830A
S11346108C93268137812F5F3F4F3783268314C0C5
S11346208B01EC01FB010084F185E02D1995892BA8
S1134630E1F6D80116968D919C91179701961796DD
S11346409C938E931697CE01DF91CF911F910F917A
S11346500895FA01AA27283051F1203181F1E89414
S11346606F936E7F6E5F7F4F8F4F9F4FAF4FB1E061
S11346703ED0B4E03CD0670F781F891F9A1FA11D5C
S1134680680F791F8A1F911DA11D6A0F711D811D5D
S1134690911DA11D20D009F468943F912AE0269F22
S11346A011243019305D3193DEF6CF010895462F81
S11346B04770405D4193B3E00FD0C9F7F6CF462F62
S11346C04F70405D4A3318F0495D31FD40524193CB
S11346D002D0A9F7EACFB4E0A69597958795779588
S11346E06795BA95C9F700976105710508959B010F
S11346F0AC010A2E06945795479537952795BA9598
S1134700C9F7620F731F841F951FA01D0895052EFE
S113471097FB16F400940FD057FD05D004DA07FC7C
S113472002D046F408C050954095309521953F4FEE
S11347304F4F5F4F089590958095709561957F4F89
S11347408F4F9F4F0895B7FF27CA26DA821B930B1A
S10947500895F894FFCF68
S1134756010000000000AF062000802500000300D1
S113476600C800C800FE31313131313131313131C7
S1134776313131313131313131313131313131311F
S1134786313131313131313131313131313131310F
S113479631313131313131313131313131313131FF
S11347A631313131313131313131313131313131EF
S11347B631313131313131313131313131313131DF
S11347C63131313131313131310100426C6F717522
S11347D6655F305F5F5F00253033640030782530D5
S10747E6345800003F
S9030000FC
