:10000000B8C00000D7C00000D5C00000D3C00000B9
:10001000D1C00000CFC00000CDC00000CBC00000A8
:10002000C9C00000C7C00000C5C00000C3C00000B8
:10003000C1C00000BFC00000BDC00000BBC00000C8
:10004000B9C000000C9472120C949F120C94CC1244
:100050000C944512AFC00000ADC00000ABC0000062
:10006000A9C00000A7C00000A5C00000A3C00000F8
:10007000A1C000009FC000009DC000009BC0000008
:100080000C9426130C9453130C9480130C94F912B3
:100090009AC300008FC000008DC000008BC000001C
:1000A00089C0000087C000000C94DA130C94071478
:1000B0000C9434140C94AD137DC000000C948E1479
:1000C0000C94BB140C94E8140C94611473C00000DD
:1000D00071C000006FC000006DC000006BC0000068
:1000E00069C000000C94F20C0C94FC0C0C94E80C0D
:1000F0000C94670C0C94920C0C94060D0C943C0C14
:100100000C94BD0C57C0000055C0000053C0000047
:1001100051C000004FC000000C941A0D0C94100D3B
:100120000C94240D0C942E0D0C94380D0C94420D4F
:100130000C944C0DBF09E609DA09F309DA09B20992
:10014000CC09DA09DA09DA09DA09DA098609DA09F9
:10015000DA09DA09DA09DA09DA09120ADA09DA094E
:100160004B0A04030302020100FFFEFDFCFBF9F74A
:10017000F4EF11241FBECFEFD1E8DEBFCDBF00E00A
:100180000CBF12E0A0E0B2E0E8EFF1E300E00BBF4B
:1001900002C007900D92A831B107D9F724E5A8E174
:1001A000B2E001C01D92A83BB207E1F70E944316DE
:1001B0000C94FA1825CF0E94ED1120911C022223E5
:1001C000D9F04091AD5430E020911C02642F732F80
:1001D0000E946C16FB018FEF9FEF642F732F0E941C
:1001E0006C1630E0629FC001639F900D729F900D6E
:1001F00011248E0F9F1F08956091AD5470E00E94EE
:100200006C16CB0108950E94F2110E9416121092F2
:1002100018021092190210921A0210921B021092E8
:100220001E0210921D020C9423120E9400121092C2
:100230001C020895E8DFF9DF0C9407120F931F9357
:10024000CF93DF93EC010E94ED118C01BE0180E0A1
:1002500090E02091AD5430E040E050E00E945D1607
:10026000DC01CB01A80160E070E0480F591F6A1F54
:100270007B1F409318025093190260931A027093E7
:100280001B02409118025091190260911A0270915C
:100290001B02AB016627772740931802509319027F
:1002A00060931A0270931B02409118025091190238
:1002B00060911A0270911B0241155105610571058B
:1002C00091F0409118025091190260911A027091B8
:1002D0001B020196080F191F10931E0200931D02A6
:1002E0000E94F21108C0080F191F10931E020093FC
:1002F0001D020E94F91180911D0290911E02843608
:10030000910530F48C599F4F90931E0280931D02EB
:1003100080911D0290911E020E940B12DF91CF91DD
:100320001F910F91089510921C020E942512809334
:10033000AD5408958091180290911902A0911A026B
:10034000B0911B020097A105B105C9F08091180278
:1003500090911902A0911A02B0911B020197A10974
:10036000B1098093180290931902A0931A02B093D6
:100370001B020097A105B10511F40E94F9118091AB
:100380001C028F5F80931C029091AD54891748F036
:1003900010921C02E0911F02F0912002309709F0A8
:1003A000199508950E94F211E0912102F091220224
:1003B000309709F0199508959093200280931F02B9
:1003C000089590932202809321020895EF92FF9264
:1003D0000F931F93CF93DF937C018B01EA0120974A
:1003E00039F0F80161918F01C7014FD02197C9F70A
:1003F00080E0DF91CF911F910F91FF90EF900895D2
:10040000EF92FF920F931F93CF93DF937C018B01A9
:10041000EA01209739F0C7013FD0F80181938F019D
:100420002197C9F780E0DF91CF911F910F91FF9045
:10043000EF900895CF93DF931F92CDB7DEB78091F1
:10044000AF059091B005E091AB05F091AC05BE0110
:100450006F5F7F4F19958981082E000C990B0F90C3
:10046000DF91CF910895682F8091AF059091B005ED
:10047000E091AD05F091AE05199599231CF081E04E
:1004800090E008958FEF9FEF0895FC01908195FF14
:10049000FDCF668380E00895FC0190819923ECF7FD
:1004A000868108954F925F926F927F928F929F9272
:1004B000AF92BF92CF92DF92EF92FF920F931F9372
:1004C000CF93DF93EC016A017B0128013901689425
:1004D00012F876946794579447941694D1F78881CC
:1004E00081FD0EC048015901072E73E1B694A7940F
:1004F000979487947A95D1F7702DD301C20115C0D6
:10050000D901C801689413F8B695A7959795879572
:100510001694D1F748015901072E74E1B694A794B7
:10052000979487947A95D1F7702D8C159D05AE051B
:10053000BF0578F1C814D904EA04FB0460F188818E
:1005400081FF10C0A7019601220F331F441F551FC2
:10055000C301B2010E949316DA01C9010197A109F2
:10056000B10913C0C901B801689413F8969587952D
:10057000779567951694D1F7A70196010E94931677
:10058000DA01C9010197A109B1099D838C8381E03A
:1005900003C080E001C080E0DF91CF911F910F91F7
:1005A000FF90EF90DF90CF90BF90AF909F908F9093
:1005B0007F906F905F904F9008950F931F93CF930C
:1005C000DF93EC018B01803C910521F462E080E037
:1005D00073D306C0883C910519F461E081E06CD3C7
:1005E0008A818F738A83F8012681358184819A817B
:1005F000482F4370440F997F942B9A83998184707C
:10060000880F880F9B7F892B89838A818F7C832B1E
:100610008A839A81977F822F880F880F880F892B72
:100620008A83408151816281738100E012E12AE76F
:1006300030E0CE0137DF998198609983998190618C
:100640009983DF91CF911F910F910895CF93DF93FD
:10065000EB0122DF8883DF91CF91089516CF0895B3
:100660000F931F93CF93DF93CDB7DEB727970FB6C6
:10067000F894DEBF0FBECDBF08EC10E01093B005BC
:100680000093AF058EE293E09093AE058093AD05A5
:1006900086E293E09093AC058093AB05EAE0F2E04C
:1006A00084818D8385818E8386818F8380819181F2
:1006B000A281B38189839A83AB83BC83BE016F5FC0
:1006C0007F4F88EC90E079DF6AE172E083E392E0AB
:1006D0000E944C17F80181818068818327960FB6AC
:1006E000F894DEBF0FBECDBFDF91CF911F910F9168
:1006F0000895FF920F931F93CF93DF938C01F62EF3
:10070000C62FD0E0AE01B80188EC90E05FDE811129
:10071000F9CF8F2DDF91CF911F910F91FF90089509
:10072000DC018091240290912502891728F0282F5E
:10073000291B2093230205C02CE9280F291B209395
:10074000230290912302992331F19C3940F0809348
:1007500025028CE9809323026C3938F403C0961784
:1007600008F4692F611102C018C06CE9909125024C
:10077000262FE92FF0E0EA5DFD4F30813D932150B7
:100780009B3911F09F5F01C090E02111F2CF90934F
:100790002502862F089580E0089580E00895CF9384
:1007A000DF931F92CDB7DEB761E0CE010196B8DFCF
:1007B000882319F0898190E002C08FEF9FEF0F909E
:1007C000DF91CF9108951F920F920FB60F921124CF
:1007D0000BB60F922F933F934F935F936F937F933B
:1007E0008F939F93AF93BF93EF93FF93CF93DF9339
:1007F0001F92CDB7DEB741E050E0BE016F5F7F4F83
:1008000088EC90E0FDDDF89480912402E82FF0E080
:10081000EA5DFD4F998190838B3919F4109224027F
:1008200003C08F5F8093240278940F90DF91CF9163
:10083000FF91EF91BF91AF919F918F917F916F91B8
:100840005F914F913F912F910F900BBE0F900FBE74
:100850000F901F901895CF92DF92EF92FF920F9317
:100860001F93CF93DF93CDB7DEB7C550D1400FB6FE
:10087000F894DEBF0FBECDBF86E0E1E1F2E0DE011D
:10088000119601900D928A95E1F78FEF8E8387DFA5
:10089000C82E8F3F69F0E091360391E09E0F909350
:1008A0003603F0E0EE53FD4F808389E0C81629F04F
:1008B00080913603843709F054C066E0CE0101967A
:1008C00018DF60913603615082EC92E057D11092AC
:1008D000360347C010923A03109239030F2EFAE202
:1008E000EF2EF12CF02D8E010A5F1E4F6894DD244F
:1008F000D2F814C08D918193E017F107D9F72150F8
:100900003F4F30933A03209339036FEFCE010796A0
:10091000F0DED2BA81E0E81AF10851F020913903F3
:1009200030913A03D901AD5DB94FFE013796E2CF60
:10093000A29A88E0C81621F0809136038437A9F482
:100940001F8282E088878FEF898763E0CE01079658
:10095000D0DE10923603A29808C088E0C81205C005
:10096000EFCF8DE0C812F9CFB5CFCB5FDE4F0FB61A
:10097000F894DEBF0FBECDBFDF91CF911F910F91D5
:10098000FF90EF90DF90CF900895CF93DF93EC012D
:100990008F819885FC0160816B500A96AADE81EBFD
:1009A00095E021E7FC0111922A95E9F7EF81F8859E
:1009B00021E7DC0101900D922A95E1F7FC01808589
:1009C00091850197A9F58091BB05833411F08C3492
:1009D00079F580E489B9A29A7298EF81F8858081CF
:1009E0008E5FE80FF11D8081E1EBF5E0808F4081A3
:1009F00050E04B5051094731510519F0443651052B
:100A0000B9F46091370370913803ABEBB5E0FB01AB
:100A1000ED5DF94F80E090E02D91219301968417D0
:100A20009507D4F3460F571F50933803409337036D
:100A3000DF91CF91089508954F925F926F927F92C8
:100A40008F92AF92CF92EF920F931F93CF93DF933A
:100A5000CDB7DEB7A9E8B0E0AE19B109FD01E35C9E
:100A6000FC4F3F01EE2079F0D80144244A944E0C0B
:100A7000512C9FEF491A590A040D151D9D91919310
:100A8000A017B107D9F7423061F43BE03E0DD30126
:100A900040919454509195545E934E9340E050E8A9
:100AA00026C0D301189731E13E0DE8E8F4E59081C6
:100AB0009C93918111969C931197928112969C938D
:100AC0001297938113969C931397948114969C93F9
:100AD0001497958115969C931597968116969C93DD
:100AE0001697978117969C93179740E050EC8230A9
:100AF00059F4FB0180819181FD01929382933F0122
:100B0000CA01806498600FC03D01F8E06F1A710857
:100B10003A5F88E0FB01D30101900D928A95E1F7DD
:100B2000CA0180649C604EEF5AECF3013297518306
:100B3000408331972083C11002C0816001C081626F
:100B4000F301359791838083D30116973C93B0933B
:100B50004503A0934403482D6A2D8DE393E00E9442
:100B6000F910DF91CF911F910F91EF90CF90AF903F
:100B70008F907F906F905F904F9008958F92AF927B
:100B8000CF92EF920F931F93CF93DF931F921F92F9
:100B9000CDB7DEB721E030E03A83298320913B03D3
:100BA00030913C03A9014F5F5F4F50933C0340934A
:100BB0003B03812C6894AA24A1F8C12CE62E8C0159
:100BC00042E0BE016F5F7F4F82E036DF0F900F90F3
:100BD000DF91CF911F910F91EF90CF90AF908F90B9
:100BE000089586E00C9426100895CF93DF9300D0EB
:100BF00000D0CDB7DEB745D036D0BAD18BD5811174
:100C0000FFCF789482E090E09A8389838EEF9AEC0C
:100C10009C838B838BE08D831E82BE016F5F7F4F31
:100C200083E50E94550EBE016D5F7F4F80E50E94F7
:100C3000550EBE016B5F7F4F80E00E94550EBE01D6
:100C40006A5F7F4F84E00E94550E62E080E00E9460
:100C50003511C7DF26960FB6F894DEBF0FBECDBFA5
:100C6000DF91CF9108958DB18E7F9EB15E9A569A95
:100C7000A29A9A9A95609EB984608DB90895F0CC35
:100C80000895CF93DF931F92CDB7DEB78FEF809398
:100C90006400809365008FB78983F89489815F939E
:100CA00050E85093610050E0509361005F918FBF16
:100CB0000F90DF91CF910895CF93DF931F92CDB71F
:100CC000DEB79FB79983F8949981823040F4E82F7A
:100CD000F0E0EC59FF4F60958081682360839FBFEF
:100CE0000F90DF91CF910895CF93DF931F92CDB7EF
:100CF000DEB79FB79983F8949981823038F4E82F52
:100D0000F0E0EC59FF4F8081682B60839FBF0F900C
:100D1000DF91CF9108958091CC03882319F081E071
:100D200080937F5408951F93CF93DF931F92CDB785
:100D3000DEB780914B5490914C54019690934C5453
:100D400080934B548FB78983F89419818091CB039A
:100D50008F3FE9F190E0FC01EE0FFF1F9C01220F95
:100D6000331F220F331F220F331FE20FF31FE35BEA
:100D7000FB4A218521112BC0FC01EE0FFF1F880FBC
:100D8000991F880F991F880F991FE80FF91FE35BC0
:100D9000FB4A80819181A281B38120914B54309193
:100DA0004C542A173B0799F449DA8091CB0390E021
:100DB000FC01EE0FFF1F880F991F880F991F880FE6
:100DC000991FE80FF91FE35BFB4A81E081871FBF92
:100DD0000F90DF91CF911F9108950F931F93CF93A1
:100DE000DF93C82F8F3F09F460C000914B541091DE
:100DF0004C54E1D940914B5450914C540417150771
:100E0000A1F7D0E060E070E0FE01EE0FFF1F9E0151
:100E1000220F331F220F331F220F331FE20FF31F46
:100E2000E35BFB4ABA0155274427A0E0B0E0482B1A
:100E3000592B6A2B7B2B80819181A281B381841BEA
:100E4000950BA60BB70B8F3F2FEF9207A2072FE74B
:100E5000B20738F59E01220F331F220F331F220FD6
:100E6000331FFE01EE0FFF1FE20FF31FE35BFB4A90
:100E7000218521111BC0009721E0A207B105B0F424
:100E8000DDD9CE01880F991FCC0FDD1FCC0FDD1FE0
:100E9000CC0FDD1FC80FD91FC35BDB4A81E08987F8
:100EA00005C081E080937F5401C0ADD9DF91CF911F
:100EB0001F910F91089580917F54882309F457C0A2
:100EC00010927F548091CC03882309F450C0809104
:100ED000CA038F3F59F48091C9038F3F39F4809141
:100EE000CB038093C9038093CA0315C02091CB0321
:100EF0008091C90390E0FC01EE0FFF1F880F991F3E
:100F0000880F991F880F991FE80FF91FE35BFB4AB1
:100F100020872093C9038091CB0390E0FC01EE0F62
:100F2000FF1F880F991F880F991F880F991FE80FBF
:100F3000F91FE35BFB4A80858093CB032091C903B3
:100F400030E0F901EE0FFF1F220F331F220F331F76
:100F5000220F331FE20FF31FE35BFB4A9FEF9087E3
:100F60009091CC0391509093CC03911136CF08957A
:100F70001092CC0310927F5410924C5410924B5408
:100F80008FEF8093CB038093CA038093C903EDE472
:100F9000F4E52FE734E58087158214823A96E2174C
:100FA000F307C9F71092C80383E996E005DA8BE8E6
:100FB00096E007DAB8C908950F931F93CF93DF9394
:100FC0001F921F92CDB7DEB78FB78A83F8941A812C
:100FD00072DF1FBF1FEF012F37C08FB78983F894CF
:100FE00029818091CA0390E0DC01AA0FBB1F880F02
:100FF000991F880F991F880F991FA80FB91FA35B0E
:10100000BB4A18969C9118971496ED91FC911597F0
:1010100016964D915C91179718961C9318971596F4
:101020001C921E92149717961C921E921697199650
:101030001C929093CA039F3F11F40093C9032FBFE2
:10104000309711F0CA0119958091CA038F3F29F694
:101050000F900F90DF91CF911F910F91089580E035
:101060000895AACF0895CF93DF938DEC93E0B0D08D
:10107000C2EDD3E08EED93E099838883BE018DECC1
:1010800093E0ADD089E694E09D838C8366ED73E0B8
:101090008DEC93E0A4D084EF94E0998788876AED83
:1010A00073E08DEC93E09BD0DF91CF91089560E0E9
:1010B00070E08DEC93E0B8C00895009721F0BC017A
:1010C0008DEC93E08CC008958F929F92AF92BF9267
:1010D000CF92DF92EF92FF920F931F93CF93DF9304
:1010E0001F92CDB7DEB72FB72983F8948980DC0132
:1010F00014962C91222309F456C07A01962E5C0195
:10110000FC0100811181452BE1F00115110509F465
:101110004DC0680101C08901D70112966D917C9183
:101120001397ED91FC91D8018D919C9119958111A6
:1011300009C0F8012281338168012115310559F771
:1011400035C068010115110599F1911031C0D50123
:101150008D919C9111970817190731F4F80182813C
:1011600093818D939C9308C0D80112968D919C9188
:101170001397F60193838283D50112968D919C91EA
:1011800013970817190721F41396DC92CE92129741
:10119000F50184818150848380819181892B41F480
:1011A0001382128205C000E010E002C000E010E0EF
:1011B0008FBEC8010F90DF91CF911F910F91FF90CB
:1011C000EF90DF90CF90BF90AF909F908F90089559
:1011D000FC01118210821382128214820895CF932F
:1011E000DF931F92CDB7DEB7FC018FB78983F894E8
:1011F00099818481811103C07183608306C0A281BB
:10120000B38113967C936E93129773836283DB0191
:1012100013961C921E92129784818F5F84839FBFC6
:101220000F90DF91CF910895AB0160E04DCF08950D
:1012300004C0615071098109910961157105810529
:101240009105B9F708950F931F93CF9380914101B2
:101250008F718830A1F481E080934F0189E0809301
:101260004201C3E00FE411E0F801808180FD07C076
:1012700063E970E080E090E0DBDFC150A9F7CF9137
:101280001F910F9108951F93CF93DF931F92CDB7B6
:10129000DEB7182F8091A7548F3051F51F3009F415
:1012A00038C11092AB5488E79DE0E1D28FB78983B3
:1012B000F89499817894E9E3F1E080818D7F8083CF
:1012C0008091AB548823E1F39FBF8FEF80934F0150
:1012D00088E480934E01EDE4F1E0808184608083B6
:1012E000183011F0133021F488E08093A75411C115
:1012F000812F90E0FC013397E731F10508F05AC0E7
:101300008827E656FF4F8F4F0C94B51683E08093E5
:101310004201EDE4F1E080818B7F80830E943517EC
:1013200080936D01EEE6F1E080819770887F892BD4
:1013300080838FEF80934F0180E880934E0162E0BD
:1013400070E080E090E074DFE9E3F1E080818260AA
:1013500080836FE270E080E090E06ADF8FE080934E
:10136000A754D7C08091A754883021F188E080939A
:10137000420162E070E080E090E05ADF1BC08091A3
:10138000A7548830B9F083E08093420162E070E0B6
:1013900080E090E04DDF0EC08091A754883049F086
:1013A00018F4863039F409C0863139F0893111F4E6
:1013B00004C049DFE1E4F1E0A6C089E08093420186
:1013C00062E070E080E090E033DFF4CF8091A754DA
:1013D000883019F0893071F302C035DFEBCF84E03B
:1013E00080934201E7CF8091A754893041F018F4EF
:1013F000883071F0DFCF863111F08931D9F686E07F
:101400008093420162E070E080E090E011DFD2CF93
:101410001ADF86E08093420162E070E080E090E0B5
:1014200007DFC8CF8091A754883091F018F4863038
:10143000C9F0C0CF893019F0893109F0BBCF86E1FE
:101440008093420162E070E080E090E0F1DEB2CF94
:10145000FADE86E18093420162E070E080E090E095
:10146000E7DEA8CF89E08093420162E070E080E08F
:1014700090E0DEDE809141018F718093A754893026
:1014800009F047C086E18093420162E070E080E0AD
:1014900090E0CEDE8FCF8091A754883051F118F4C0
:1014A000863079F087CF893019F0863151F082CFBC
:1014B00089E18093420162E070E080E090E0B8DE74
:1014C00079CF89E08093420162E070E080E090E0B3
:1014D000AFDE809141018F718093A7548930C9F4A8
:1014E00089E18093420162E070E080E090E0A0DE5C
:1014F00061CFA9DE89E18093420162E070E080E083
:1015000090E096DE57CF80818F718093A7548F3102
:10151000D1F30F90DF91CF911F910895CF93DF9377
:1015200080918054882319F18091AC5481111FC09F
:1015300080917F0590918005892B41F48BE8B7DD80
:101540009093800580937F05892B89F010928054B9
:10155000CCE4D1E088818F77888363E070E080E01D
:1015600090E066DE88818068888386E18CDE8091E9
:101570008554882341F060E070E081E894E554DE12
:10158000009709F024D58091AC54823009F485D5B8
:10159000DF91CF91089504C06150710981099109CB
:1015A0006115710581059105B9F70895FF920F93B3
:1015B0001F93CF93DF9386E066DE8630E1F7E5E5A3
:1015C000F1E080818F77808310924E016894FF2430
:1015D000F3F8C0E0D0E006E411E0F8019081CC0F10
:1015E000DD1FCC0FDD1F9076292F30E03695279533
:1015F000329522952F7023273F702327C22BD32BA0
:1016000062E070E080E090E0C6DFFA94F110E5CF90
:1016100083E039DE8FEF80934F0188E480934E01A1
:10162000CE010E943817DF91CF911F910F91FF904B
:101630000895FF920F931F93CF93DF93F82EC9E382
:10164000D1E088818D7F888361E471E080E090E063
:10165000A2DF88818E7F888362E070E080E090E086
:101660009ADF88818160888366E870E080E090E09E
:1016700092DF809141018F71CAE001E411E00AC05C
:1016800066E870E080E090E086DFF80180818F718D
:10169000C150C9F18830A1F78093A75487DF0E9419
:1016A000351780936D01EEE6F1E080819770887FB9
:1016B000892B8083808180628083ECE4F1E08081EB
:1016C0008068808388E480934E018FEF8093560179
:1016D000EDE4F1E080818C7F82608083AAE4B1E058
:1016E0008C91807F83608C938081886080838081EF
:1016F00084608083F11030D27DD21092AC5410926D
:10170000805480E001C085E8DF91CF911F910F9157
:10171000FF900895CF92DF92EF92FF920F931F9365
:10172000CF93DF9314BE80E1809335018093340121
:10173000809333018093320192DC81116DC060E4AB
:1017400081E0BADAC9E3D1E0888181608883888149
:101750008D7F88836BEF71E080E090E01CDF8881F3
:101760008E7F888362E070E080E090E014DF888103
:101770008160888366E870E080E090E00CDF809113
:1017800041018F71CAE001E411E00BC066E870E02E
:1017900080E090E000DFF80180818F71C15009F492
:1017A00051C0883099F78093A75480915C018439A7
:1017B00009F048C035C00E943517F80181938F01A8
:1017C000EC15FD05C1F7F70120813181428153817C
:1017D0006481758186819781AFEF0E94D616ADEF47
:1017E0000E94E21621F018F008E814E5E4CF86E53F
:1017F0009DE038D087E69DE030D088E79DE037D087
:1018000032DC8BE854DC9093800580937F0581E87F
:1018100094E5DEDCCBD517C0C5E815C0C5E813C01C
:1018200081E007DFC82F8111F9CF0F2EF8E8EF2EE6
:10183000F4E5FF2EF02D0F2EF0E9CF2EF4E5DF2E8C
:10184000F02DC1CFC5E88C2FDF91CF911F910F9163
:10185000FF90EF90DF90CF9008959093880580934C
:101860008705089590938605809385050895909344
:1018700082058093810508951F920F920FB60F92F3
:1018800011240BB60F922F933F934F935F936F9357
:101890007F938F939F93AF93BF93EF93FF93E091C9
:1018A0008705F09188051995FF91EF91BF91AF9150
:1018B0009F918F917F916F915F914F913F912F9168
:1018C0000F900BBE0F900FBE0F901F9018951F9298
:1018D0000F920FB60F9211240BB60F922F933F93D6
:1018E0004F935F936F937F938F939F93AF93BF9328
:1018F000EF93FF93E0918505F09186051995FF918F
:10190000EF91BF91AF919F918F917F916F915F9177
:101910004F913F912F910F900BBE0F900FBE0F90E4
:101920001F9018951F920F920FB60F9211240BB6AD
:101930000F922F933F934F935F936F937F938F9368
:101940009F93AF93BF93EF93FF93E0918305F09143
:1019500084051995FF91EF91BF91AF919F918F9160
:101960007F916F915F914F913F912F910F900BBE9F
:101970000F900FBE0F901F9018951F920F920FB6E9
:101980000F9211240BB60F922F933F934F935F93B7
:101990006F937F938F939F93AF93BF93EF93FF9337
:1019A000E0918105F09182051995FF91EF91BF912A
:1019B000AF919F918F917F916F915F914F913F91E7
:1019C0002F910F900BBE0F900FBE0F901F90189588
:1019D0001F920F920FB60F9211240F900FBE0F900F
:1019E0001F9018951F920F920FB60F9211240F900F
:1019F0000FBE0F901F9018951F920F920FB60F9267
:101A000011240F900FBE0F901F9018951F920F92E8
:101A10000FB60F9211240F900FBE0F901F901895C4
:101A20001F920F920FB60F9211240F900FBE0F90BE
:101A30001F9018951F920F920FB60F9211240F90BE
:101A40000FBE0F901F9018951F920F920FB60F9216
:101A500011240F900FBE0F901F9018951F920F9298
:101A60000FB60F9211240F900FBE0F901F90189574
:101A70001F920F920FB60F9211240F900FBE0F906E
:101A80001F9018951F920F920FB60F9211240F906E
:101A90000FBE0F901F9018951F920F920FB60F92C6
:101AA00011240F900FBE0F901F9018951F93CF9386
:101AB000DF931F92CDB7DEB78FB78983F894198172
:101AC00019D21FBF0F90DF91CF911F9108951F93DF
:101AD000CF93DF931F92CDB7DEB78FB78983F8948A
:101AE0001981A6D31FBF0F90DF91CF911F91089549
:101AF00081E08093AB54089585FD03C0982F9F73B8
:101B000004C0982F91959F719195E2E6F1E02491A0
:101B1000291754F48491803EB4F08032B4F48823C1
:101B2000CCF48F71806216C0E1E7F1E02491921746
:101B30008CF48491803E5CF080325CF4882354F411
:101B40008F71806207C080E205C08FE103C080E230
:101B500001C08FE180680895CF93DF93C8E8D4E592
:101B600084E08C8B83E08D8B2FEF3FEF3F872E87B8
:101B70003D872C879BE09B8B188E40E058EF6FEFE2
:101B800077E0488759876A877B872AE031E0398B7D
:101B9000288B9AE0998F92E09A8F95E09B8F8C8F9B
:101BA00084E8AADF8F8B81E08A8B1E8ADF91CF9138
:101BB000089585FD02C08F7303C081958F71819553
:101BC000E2E6F1E0949189173CF4E3E6F1E021E0EC
:101BD000949189173CF001C020E098174CF48FEFE6
:101BE000820F08952F5F3196203191F780E008959C
:101BF000822F0895CF93DF93E8E8F4E586858093FC
:101C00006201878580936301E4E6F1E0A8E8B4E52A
:101C10008D918193EC3631E0F307D1F7E8E8F4E5F4
:101C200084858093600185858093610148E451E05B
:101C3000DA018C912289B0E22B9F90011124207649
:101C40008F79822BDA018C93CFE6D1E08881958958
:101C50009F70807F892B88832EE631E0D9018C919B
:101C60009689990F990F990F9870877F892B8C937C
:101C70002881938DB0E19B9FC0011124922F9F700A
:101C8000892B8883DA018C9193899F71807E892BBF
:101C90008C9387898EDFE5E4F1E09081907F8F70EF
:101CA000892B8083DF91CF910895CF93DF938E347A
:101CB00041F0893561F4FB0180818093A45480E078
:101CC0000BC1FB01808180939C5480E005C1909101
:101CD000A7549F3009F4DCC08B3009F4C9C080F4EC
:101CE000EB01823009F484C020F4882309F446C053
:101CF000D1C0833009F48CC0843009F45AC0CAC002
:101D0000833579F128F48F3451F08035E9F0C2C081
:101D1000873509F456C0803F09F48BC0BBC0FB0176
:101D20008081E8E8F4E5858B938D981710F4909303
:101D30009D54EFE6F1E0808190919D549F70807FEB
:101D4000892B808380E0C8C0FB0190818181E8E815
:101D5000F4E596878787909362018093630180E022
:101D6000BBC0FB0190818181E8E8F4E59487858719
:101D7000909360018093610180E0AEC08091AC548B
:101D800081118AC0888140E058EF6FEF77E0082E1C
:101D900004C076956795579547950A94D2F740FF0A
:101DA0007DC0983009F480C088E06DDA8830E1F7B2
:101DB00086C08091AC54811173C08881811172C03A
:101DC0008BC0FB019081E8E8F4E5938F8589981733
:101DD00010F490939D54EFE6F1E08081282F2F704E
:101DE00030E1939FC0011124822B808380E074C076
:101DF0008881C8E8D4E58F8B7FDE8F8BDADEE5E45F
:101E0000F1E09081907F8F70892B808380E064C0A7
:101E1000888180939A54E8E4F1E0208130E2839F46
:101E2000C00111248076922F9F79892B808380E0D6
:101E300053C0FB01B081A18152814381348125814E
:101E400096818781E8E8F4E5B083A18352834383D8
:101E50003483258396838783E4E6F1E0A8E8B4E53C
:101E60008D918193EC3631E0F307D1F780E034C0F7
:101E7000FB01808180939E54EEE6F1E09081880F13
:101E8000880F880F8870977F892B808380E024C01B
:101E900081E822C084EF20C086E81EC088EE1CC006
:101EA00086E81AC088EE18C080939B54E8E4F1E0FD
:101EB0009081907E8F71892B808380E00DC0888116
:101EC00080939B54E8E4F1E09081907E8F71892BA0
:101ED000808386E1D8D980E0DF91CF91089504C056
:101EE000615071098109910961157105810591059B
:101EF000B9F70895CF92DF92EF92FF920F931F935D
:101F0000CF93DF93E0917F05F0918005309771F4D6
:101F1000CCE4D1E088818F77888363E070E080E053
:101F200090E0DDDF88818068888348C000914701A8
:101F300010917B0111230CF441C0E080F18082E01C
:101F4000810FEBE8F0E0E81BF109E701CE0FDF1F9E
:101F5000C12ED12CA6014F5F5F4F60E871E0CE012A
:101F600092D7FE011293D7011896FC93EE93179720
:101F7000EC0DFD1D028360917F057091800581E865
:101F800094E52DD98BE893D89093800580937F05B5
:101F9000892B21F481E0809380540DC0CCE4D1E002
:101FA00088818F77888363E070E080E090E097DF3E
:101FB00088818068888380E480934F01DF91CF918E
:101FC0001F910F91FF90EF90DF90CF900895CF93E6
:101FD000DF93AC01FC01C081D181AF81B8858C91C8
:101FE0008093A854E82FF0E03196EA0FFB1F808120
:101FF00031813D3320F4311103C031E001C03CE3B5
:1020000082958695869583702FEF829FC00111245B
:10201000389FB001399F700D11249B01A3E8BDE2E8
:10202000ACD696958795929582958F7089279F70EB
:1020300089278F3F910511F008F08FEF80835A8335
:102040004983CE012ED6DF91CF9108959091AC5463
:10205000911116C0883029F416D91092805488E066
:10206000089580917F0590918005892B21F086E16C
:102070000AD986E0089581E08093805486E008952F
:1020800086E8089504C061507109810991096115BC
:10209000710581059105B9F708951092AC548091AE
:1020A0008905833069F028F4882391F0813031F07C
:1020B0000DC0853039F0873039F008C087E809C095
:1020C00081EE07C089EE05C085E803C085E801C040
:1020D00080E06091865470918754E0C508951F9305
:1020E000CF93DF931F92CDB7DEB7182F662381F011
:1020F000ECE6F1E020819091A45430E1939FC0017F
:102100001124922F9F70892B80831230E0F408C035
:10211000ECE6F1E080818F7080831230A0F40DC076
:10212000ECE6F1E0808190919C54990F9E70817F44
:10213000892B808310926F011AC0ECE6F1E0808158
:102140008E60808314C0E8E8F4E5838D20E1829FEF
:10215000C00111249589892B80936F01ACE6B1E011
:102160008C919489990F9E70817F892B8C9389E142
:102170008AD88931E1F71130A1F48091A8548331D4
:1021800040F061E073E080E090E07CDF1092A854C2
:102190000DC06BEA70E080E090E074DF1092A8540C
:1021A00005C06CE070E080E090E06CDF8FB7898361
:1021B000F8941981E9E3F1E0808182608083000076
:1021C000000080818D7F80836091A9547091AA5412
:1021D000FB01408150E04150510980E891E053D625
:1021E00081E08093AC541FBF0F90DF91CF911F917E
:1021F0000895FC019091AC54911116C0F09387544E
:10220000E09386540780F085E02DF093AA54E09384
:10221000A954808181508093A854EF2B39F0862FE8
:10222000642F5DDF80E0089586E8089588EE0895C4
:102230008091AC548130C1F48091420182958695A1
:1022400087708093890582E08093AC5480917F05EC
:1022500090918005892B31F489E015D881E0809335
:102260008054089586E10FC80895882329F1EDE48C
:10227000F1E080818C7F8083808188608083AAE404
:10228000B1E08C91807F83608C93808184608083B7
:102290008081837009F054C080914D0183FF52C04A
:1022A00080914D0182FF50C080914A018F70833030
:1022B00009F04CC080E00895EDE4F1E08081877F73
:1022C0008083AAE4B1E08C91807F87608C938081C9
:1022D00084608083613031F480818C7F8160808371
:1022E00085E817C0623041F4EDE4F1E080818C7F35
:1022F0008260808385E80DC0662311F0633041F46D
:10230000EDE4F1E080818C7F808385E860E001C0AE
:1023100088EE20914D01237030E070E026173707DA
:10232000B9F490914D0193FD15C090914D0192FD2E
:1023300013C090914A019F70933079F480E0089522
:1023400085E8089585E8089585E8089585E8089565
:1023500085E8089585E8089585E80895811124C0E9
:10236000FB018081803D2CF08FEC80938A056FE02B
:1023700012C0873A2CF486EA80938A0560E00BC08D
:1023800080938A05082E000C990B865A9F4F63E0B4
:1023900070E0B6D46F5FE5E5F1E08081807F6F701B
:1023A000682B608380E0089584EF089586EA809327
:1023B0008A056AE875E080E0D1DF61E080E00E9494
:1023C0005C0660E180E00E945C0680E008950C9469
:1023D0009A0108950C94D2010895809184009091FF
:1023E00085000895EFE6F0E080818D7F8083B19ACB
:1023F0000895B19AEFE6F0E08081826080830895CD
:10240000EFE6F0E0808181608083B09A089580E8F3
:1024100090E082C30895E9E8F0E02081922B908358
:10242000E8E8F0E09081892B80830895CF93DF93D3
:102430001F92CDB7DEB78FB78983F89489810F904B
:10244000DF91CF9108958FBF0895CF93DF9380E8F8
:1024500090E0EBD267EE71E180E890E0D4D3CFE674
:10246000D0E08881816088836AEE71E180E890E045
:10247000EAD388818D7F8883E1E8F0E08081816004
:10248000808388E0DF91CF9108951F920F920FB65D
:102490000F9211240BB60F922F933F934F935F939C
:1024A0006F937F938F939F93AF93BF93EF93FF931C
:1024B000E091A905F091AA05309709F01995FF91CF
:1024C000EF91BF91AF919F918F917F916F915F91AC
:1024D0004F913F912F910F900BBE0F900FBE0F9019
:1024E0001F9018951F920F920FB60F9211240BB6E2
:1024F0000F922F933F934F935F936F937F938F939D
:102500009F93AF93BF93EF93FF93E091A705F09153
:10251000A805309709F01995FF91EF91BF91AF9100
:102520009F918F917F916F915F914F913F912F91EB
:102530000F900BBE0F900FBE0F901F9018951F921B
:102540000F920FB60F9211240BB60F922F933F9359
:102550004F935F936F937F938F939F93AF93BF93AB
:10256000EF93FF93E091A505F091A605309709F050
:102570001995FF91EF91BF91AF919F918F917F91AD
:102580006F915F914F913F912F910F900BBE0F90E4
:102590000FBE0F901F9018951F920F920FB60F92BB
:1025A00011240BB60F922F933F934F935F936F932A
:1025B0007F938F939F93AF93BF93EF93FF93E0919C
:1025C000A305F091A405309709F01995FF91EF91BB
:1025D000BF91AF919F918F917F916F915F914F913B
:1025E0003F912F910F900BBE0F900FBE0F901F9039
:1025F00018951F920F920FB60F9211240BB60F92DF
:102600002F933F934F935F936F937F938F939F93FA
:10261000AF93BF93EF93FF93E091A105F091A205D3
:10262000309709F01995FF91EF91BF91AF919F916C
:102630008F917F916F915F914F913F912F910F906B
:102640000BBE0F900FBE0F901F9018951F920F9208
:102650000FB60F9211240BB60F922F933F934F9307
:102660005F936F937F938F939F93AF93BF93EF93FA
:10267000FF93E0919F05F091A005309709F019951F
:10268000FF91EF91BF91AF919F918F917F916F914A
:102690005F914F913F912F910F900BBE0F900FBE06
:1026A0000F901F9018951F920F920FB60F92112442
:1026B0000BB60F922F933F934F935F936F937F933C
:1026C0008F939F93AF93BF93EF93FF93E0919D05FB
:1026D000F0919E05309709F01995FF91EF91BF9108
:1026E000AF919F918F917F916F915F914F913F91AA
:1026F0002F910F900BBE0F900FBE0F901F9018954B
:102700001F920F920FB60F9211240BB60F922F93B8
:102710003F934F935F936F937F938F939F93AF9369
:10272000BF93EF93FF93E0919B05F0919C05309749
:1027300009F01995FF91EF91BF91AF919F918F9102
:102740007F916F915F914F913F912F910F900BBEB1
:102750000F900FBE0F901F9018951F920F920FB6FB
:102760000F9211240BB60F922F933F934F935F93C9
:102770006F937F938F939F93AF93BF93EF93FF9349
:10278000E0919905F0919A05309709F01995FF911C
:10279000EF91BF91AF919F918F917F916F915F91D9
:1027A0004F913F912F910F900BBE0F900FBE0F9046
:1027B0001F9018951F920F920FB60F9211240BB60F
:1027C0000F922F933F934F935F936F937F938F93CA
:1027D0009F93AF93BF93EF93FF93E0919705F09191
:1027E0009805309709F01995FF91EF91BF91AF913E
:1027F0009F918F917F916F915F914F913F912F9119
:102800000F900BBE0F900FBE0F901F9018951F9248
:102810000F920FB60F9211240BB60F922F933F9386
:102820004F935F936F937F938F939F93AF93BF93D8
:10283000EF93FF93E0919505F0919605309709F09D
:102840001995FF91EF91BF91AF919F918F917F91DA
:102850006F915F914F913F912F910F900BBE0F9011
:102860000FBE0F901F9018951F920F920FB60F92E8
:1028700011240BB60F922F933F934F935F936F9357
:102880007F938F939F93AF93BF93EF93FF93E091C9
:102890009305F0919405309709F01995FF91EF9108
:1028A000BF91AF919F918F917F916F915F914F9168
:1028B0003F912F910F900BBE0F900FBE0F901F9066
:1028C00018951F920F920FB60F9211240BB60F920C
:1028D0002F933F934F935F936F937F938F939F9328
:1028E000AF93BF93EF93FF93E0919105F091920521
:1028F000309709F01995FF91EF91BF91AF919F919A
:102900008F917F916F915F914F913F912F910F9098
:102910000BBE0F900FBE0F901F9018951F920F9235
:102920000FB60F9211240BB60F922F933F934F9334
:102930005F936F937F938F939F93AF93BF93EF9327
:10294000FF93E0918F05F0919005309709F019956C
:10295000FF91EF91BF91AF919F918F917F916F9177
:102960005F914F913F912F910F900BBE0F900FBE33
:102970000F901F9018951F920F920FB60F9211246F
:102980000BB60F922F933F934F935F936F937F9369
:102990008F939F93AF93BF93EF93FF93E0918D0538
:1029A000F0918E05309709F01995FF91EF91BF9145
:1029B000AF919F918F917F916F915F914F913F91D7
:1029C0002F910F900BBE0F900FBE0F901F90189578
:1029D0001F920F920FB60F9211240BB60F922F93E6
:1029E0003F934F935F936F937F938F939F93AF9397
:1029F000BF93EF93FF93E0918B05F0918C05309797
:102A000009F01995FF91EF91BF91AF919F918F912F
:102A10007F916F915F914F913F912F910F900BBEDE
:102A20000F900FBE0F901F9018951F93CF93DF93B9
:102A30001F92CDB7DEB72FB72983F894198100977D
:102A400009F464C08837910549F461E080E00E9490
:102A50005C0660E180E00E945C0658C0803C910505
:102A600029F462E080E00E945C0650C08C3491053D
:102A700029F464E080E00E945C0648C0803891053B
:102A800029F468E080E00E945C0640C0843491052F
:102A900029F460E280E00E945C0638C0803B91052A
:102AA00029F460E480E00E945C0630C0883B910518
:102AB00029F460E880E00E945C0628C0883C91050B
:102AC00029F461E081E00E945C0620C08039910514
:102AD00029F468E081E00E945C0618C0803A910504
:102AE00029F460E181E00E945C0610C0803221E0A0
:102AF000920729F460E281E00E945C0607C08334FB
:102B0000914021F460E481E00E945C061FBF0F90B9
:102B1000DF91CF911F9108951F93CF93DF931F9261
:102B2000CDB7DEB72FB72983F8941981009709F440
:102B300064C08837910549F461E080E00E94740622
:102B400060E180E00E94740658C0803C910529F441
:102B500062E080E00E94740650C08C34910529F434
:102B600064E080E00E94740648C08038910529F432
:102B700068E080E00E94740640C08434910529F426
:102B800060E280E00E94740638C0803B910529F421
:102B900060E480E00E94740630C0883B910529F40F
:102BA00060E880E00E94740628C0883C910529F402
:102BB00061E081E00E94740620C08039910529F40B
:102BC00068E081E00E94740618C0803A910529F4FB
:102BD00060E181E00E94740610C0803221E092071B
:102BE00029F460E281E00E94740607C083349140BA
:102BF00021F460E481E00E9474061FBF0F90DF9112
:102C0000CF911F9108958038910529F47093AA05FA
:102C10006093A90508958039910529F47093A20560
:102C20006093A1050895803A910529F470939A055F
:102C30006093990508958032914021F47093920534
:102C40006093910508958038910529F47093A80543
:102C50006093A70508958039910529F47093A00524
:102C600060939F050895803A910529F47093980523
:102C70006093970508958032914021F470939005F8
:102C800060938F0508950E94F5050E943F060E94FB
:102C900031080E948E0A0E942B04F9CF0C941B0568
:102CA0000895CF93DF93EC010E94C50489819A8136
:102CB0000E945D08DF91CF910895DB018F939F9370
:102CC0006BD0BF91AF91A29F800D911DA39F900DDE
:102CD000B29F900D11240895AA1BBB1B51E107C0A0
:102CE000AA1FBB1FA617B70710F0A61BB70B881F9C
:102CF000991F5A95A9F780959095BC01CD0108952B
:102D000097FB072E16F4009406D077FD08D0E4DF79
:102D100007FC05D03EF4909581959F4F08957095DE
:102D200061957F4F0895A1E21A2EAA1BBB1BFD01DE
:102D30000DC0AA1FBB1FEE1FFF1FA217B307E4079A
:102D4000F50720F0A21BB30BE40BF50B661F771FF2
:102D5000881F991F1A9469F76095709580959095D2
:102D60009B01AC01BD01CF010895EE0FFF1F881F2D
:102D70008BBF0790F691E02D1994A29FB001B39FED
:102D8000C001A39F700D811D1124911DB29F700D74
:102D9000811D1124911D0895F0DFA59F900DB49F12
:102DA000900DA49F800D911D112408950024A7FD6E
:102DB00000942A0F301D401D501D601D701D801D88
:102DC000901D08950024A7FD00942A1730054005A2
:102DD0005005600570058005900508958F929F92BB
:102DE000AF92BF92CF92DF92EF92FF92CF93DF9399
:102DF000EC01688179818A819B816115710581056A
:102E0000910521F464E279ED8BE597E02DE133EF54
:102E100041E050E0CDD149015A019B01AC01A7EA44
:102E2000B1E4BADF6B017C01ACEEB4EFA501940113
:102E3000DDD1DC01CB018C0D9D1DAE1DBF1DB7FF8B
:102E400003C00197A109B04888839983AA83BB83F3
:102E50009F77DF91CF91FF90EF90DF90CF90BF9061
:102E6000AF909F908F900895B9CF80E092E0B6CF59
:102E7000A0E0B0E08093000290930102A0930202D0
:102E8000B09303020895FB01DC0102C001900D9292
:102E900041505040D8F708950F931F93CF93DF937D
:102EA000009731F46115710519F480E090E039C0A4
:102EB0008B01EC016EE070E081E090E037D0FC0126
:102EC000892B99F380E883830115110571F013872D
:102ED000028781E883838091AE549091AF54892B0F
:102EE00021F4F093AF54E093AE542097C9F0D1870A
:102EF000C0878381826083838091B0549091B15464
:102F0000892B71F4F093B154E093B0548091B25492
:102F10009091B354892B21F4F093B354E093B254BD
:102F2000CF01DF91CF911F910F9108950F931F93C0
:102F3000CF93DF93869F8001879F100D969F100D82
:102F40001124C8010DD0EC01009721F0A80160E028
:102F500070E027D1CE01DF91CF911F910F9108959D
:102F60000F931F93CF93DF938230910510F482E08B
:102F700090E0E091B654F091B75420E030E0A0E04A
:102F8000B0E0309719F140815181028113814817D7
:102F90005907C8F08417950769F4109731F0129615
:102FA0000C93129713961C9327C00093B65410935A
:102FB000B75422C02115310519F04217530718F4F0
:102FC0009A01BD01EF01DF01F801DBCF21153105C9
:102FD000F9F0281B390B2430310580F48A819B815C
:102FE0006115710521F0FB019383828304C09093E6
:102FF000B7548093B654FE01329644C0FE01E20FEE
:10300000F31F8193919322503109398328833AC069
:103010002091B4543091B554232B41F420910602F1
:10302000309107023093B5542093B4542091040298
:10303000309105022115310541F42DB73EB740917D
:10304000080250910902241B350BE091B454F09111
:10305000B554E217F307A0F42E1B3F0B28173907CE
:1030600078F0AC014E5F5F4F2417350748F04E0FE4
:103070005F1F5093B5544093B4548193919302C011
:10308000E0E0F0E0CF01DF91CF911F910F91089523
:10309000CF93DF93009709F481C0FC01329713822C
:1030A0001282A091B654B091B754109781F4208148
:1030B0003181820F931F2091B4543091B554281759
:1030C000390751F5F093B554E093B45467C0ED015E
:1030D00020E030E0CE17DF0740F44A815B819E019B
:1030E00041155105F1F0EA01F5CFD383C283408148
:1030F0005181840F951FC817D90759F48881998188
:10310000840F951F0296918380838A819B8193838C
:1031100082832115310529F4F093B754E093B65416
:103120003DC0E901FB83EA8349915991C40FD51F42
:10313000EC17FD0761F480819181840F951F029641
:10314000E90199838883828193819B838A83E0E06C
:10315000F0E012968D919C911397009719F0FD0164
:10316000DC01F7CF8D919C9111979D012E5F3F4F10
:10317000820F931F2091B4543091B554281739070A
:1031800069F4309729F41092B7541092B65402C0E3
:1031900013821282B093B554A093B454DF91CF91AF
:1031A0000895DC0101C06D9341505040E0F708954F
:1031B000052E97FB16F400940FD057FD05D0B3DD14
:1031C00007FC02D046F408C05095409530952195F3
:1031D0003F4F4F4F5F4F0895909580957095619543
:1031E0007F4F8F4F9F4F0895B7FFD6CDD5DD821B00
:0831F000930B0895F894FFCF42
:1031F800010000000000B8542000802500000300F2
:08320800004C6973746F0000B3
:00000001FF
